:100000000C9460030C947D030C947D030C947D038D
:100010000C947D030C947D030C947D030C947D0360
:100020000C947D030C947D030C947D030C947D0350
:100030000C947D030C947D030C947D030C947D0340
:100040000C947D030C947D030C947D030C947D0330
:100050000C947D030C947D030C947D030C947D0320
:100060000C947D030C947D030C947D030C947D0310
:1000700000000000005C00000C000C007C287C28C4
:1000800058DC68002410480028542840000C000068
:10009000007884008478000054385400107C1000EC
:1000A00080400000101010000040000060100C00A4
:1000B00038543800487C40004864580044542C00B0
:1000C0001C107C005C5424003854240064140C0080
:1000D00068542C0048543800004800008048000054
:1000E0001028440028282800442810000454080040
:1000F00038445C00781478007C5428003844280088
:100100007C4438007C5444007C140400384474005F
:100110007C107C00447C440020403C007C106C003F
:100120007C4040007C187C0078103C00384438004B
:100130007C1408003844B8007C146800485424003B
:10014000047C04007C407C003C603C007C307C00F3
:100150006C106C000C700C0064544C00007C44006B
:100160000C106000447C00000804080080808000BF
:1001700000040800304878007C48300030484800CF
:1001800030487C00306850001078140090A8780047
:100190007C08700050744000808074007C106800FF
:1001A000447C4000781078007808700030483000B7
:1001B000F82810003048F80078100800505828003F
:1001C000083C4800384078003840380078207800F3
:1001D0004830480098A0780048685800107884009B
:1001E000007C00008478100008040804000000006F
:1001F0000000005F00000007000700147F147F1458
:10020000242A7F2A1223130864623649552250009B
:1002100005030000001C2241000041221C00082AA6
:100220001C2A0808083E080800503000000808088A
:100230000808006060000020100804023E51494593
:100240003E00427F400042615149462141454B31C9
:100250001814127F1027454545393C4A4949300159
:10026000710905033649494936064949291E0036B0
:100270003600000056360000000814224114141401
:10028000141441221408000201510906324979412F
:100290003E7E1111117E7F494949363E414141223E
:1002A0007F4141221C7F494949417F090901013EA3
:1002B000414151327F0808087F00417F41002040C2
:1002C000413F017F081422417F404040407F0204AB
:1002D000027F7F0408107F3E4141413E7F090909AA
:1002E000063E4151215E7F09192946464949493157
:1002F00001017F01013F4040403F1F2040201F7F00
:100300002018207F631408146303047804036151E8
:1003100049454300007F4141020408102041417FCC
:100320000000040201020440404040400001020479
:100330000020545454787F4844443838444444207E
:10034000384444487F3854545418087E0901020840
:100350001454543C7F0804047800447D400020403D
:10036000443D00007F10284400417F40007C041879
:1003700004787C0804047838444444387C14141409
:1003800008081414187C7C080404084854545420A9
:10039000043F4440203C4040207C1C2040201C3C2A
:1003A0004030403C44281028440C5050503C446499
:1003B000544C44000836410000007F0000004136E4
:1003C000080002010302010000000000000000001C
:1003D000065F5F0600000000070700070700001423
:1003E0007F7F147F7F1400242E6B6B3A120000462F
:1003F0006630180C666200307A4F5D377A48000428
:1004000007030000000000001C3E634100000000E4
:1004100041633E1C000000082A3E1C1C3E2A0808BE
:10042000083E3E0808000000A0E060000000000850
:100430000808080808000000006060000000006074
:1004400030180C060301003E7F594D7F3E000042EC
:10045000427F7F40400000627359496F660000226E
:100460006349497F360000181C16137F7F10002750
:100470006745457D3900003C7E4B497930000003DB
:100480006371190F070000367F49497F3600000667
:100490004F49693F1E000000006C6C000000000026
:1004A000A0EC6C00000000081C3663410000001442
:1004B00014141414140000004163361C08000002D8
:1004C0000351590F0600003E7F415D5D1F1E007CF9
:1004D0007E13137E7C0000417F7F49497F36001CDC
:1004E0003E634141632200417F7F41637F1C0041A5
:1004F0007F7F495D416300417F7F491D0103001CEF
:100500003E6341517372007F7F08087F7F000000C7
:10051000417F7F41000000307040417F3F0100413A
:100520007F7F081C776300417F7F41406070007FC0
:100530007F060C067F7F007F7F060C187F7F001CE4
:100540003E6341633E1C00417F7F49090F06001E48
:100550003F21717F5E0000417F7F19396F46002681
:10056000674D597B32000003417F7F410300007FCC
:100570007F40407F7F00001F3F60603F1F00007F83
:100580007F3018307F7F0063771C081C776300077B
:100590004F78784F0700006773594D47637100002B
:1005A0007F7F41410000000103060C18306000000D
:1005B00041417F7F000000080C0603060C08008004
:1005C000808080808080800000030704000000207D
:1005D0007454543C784000413F7F44447C38003898
:1005E0007C44446C280000307848493F7F40003804
:1005F0007C54545C180000487E7F49030200009838
:10060000BCA4A4F87C0400417F7F08047C7800002F
:10061000447D7D4000000040C484FD7D0000004119
:100620007F7F10386C440000417F7F400000007CD9
:100630007C0C180C7C78007C7C04047C78000038EE
:100640007C44447C38000084FCF8A4243C18001846
:100650003C24A4F8FC8400447C78441C1800004826
:100660005C54547424000000043E7F442400003C89
:100670007C40403C7C40001C3C60603C1C00003CDA
:100680007C6030607C3C00446C3810386C44009CCA
:10069000BCA0A0FC7C00004C64745C4C64000008AE
:1006A000083E7741410000000000777700000041DC
:1006B00041773E0808000002030103020301000025
:1006C00011241FBECFEFD4E0DEBFCDBF12E0A0E00B
:1006D000B1E0E2EFFDE102C005900D92AE3CB10742
:1006E000D9F722E0AEECB2E001C01D92A83DB207FE
:1006F000E1F70E9402040C94F70E0C940000CF92D4
:10070000DF92EF92FF920F931F93CF93DF938AE0D4
:1007100091E00E943C0A0E94CB097C010E94D00912
:10072000C12CD12CC0E0D0E000E211E00E94CB0946
:10073000F601F85E808320812817A1F099279F9306
:100740008F931F922F93DF92CF921F930F930E944C
:10075000260A21968DB79EB708960FB6F8949EBFCD
:100760000FBE8DBF9FEFC91AD90AC11488E0D80601
:10077000E9F6C7010E94D00900E010E0E12CF12C5D
:100780000F2EF9E5CF2EF1E0DF2EF02D0E94CB09E0
:10079000F801F85E20812817B1F099279F938F9375
:1007A0001F922F931F930F93DF92CF920E94260ADE
:1007B0009FEFE91AF90A8DB79EB708960FB6F8941D
:1007C0009EBF0FBE8DBF0F5F1F4F011598E0190729
:1007D000E9F6FF92EF92DF93CF9386E991E09F9342
:1007E0008F930E94260A0F900F900F900F900F90FA
:1007F0000F90DF91CF911F910F91FF90EF90DF90BD
:10080000CF900895CF93DF9300D000D000D0CDB724
:10081000DEB78FE190E00E9423040E944D040E9405
:1008200050050FEE11E0CE0101960E946D048A8101
:100830001F928F931F930F930E94260A0F900F9081
:100840000F900F90F0CF90BD89B98EE880BD1BB896
:1008500088E18AB967E474E085E394E00E94DB09EB
:1008600008955D9BFECF8CB90895CF93C82F8A3031
:1008700019F48DE00E9431048C2F0E94310480E035
:1008800090E0CF9108955F9BFECF8CB108950E94B8
:100890004304082E000C990B089585B7806885BF26
:1008A00080B7806280BF0895809300100895809380
:1008B00000120895FC01F85E60830895FC01F85E63
:1008C00080810895E0E0F4E180838CEC94E001976E
:1008D000F1F700C00000808108950F931F93CF931C
:1008E000DF93EC0185E090E00E946204082F84E031
:1008F00090E00E946204182F602F70E080E090E08A
:100900000E94840820E030E04FE753E40E94E307B0
:1009100020E030E048EC52E40E9412090E945508A1
:100920006883612F70E080E090E00E94840820E0FE
:1009300030E04FE753E40E94E30720E030E048EC6A
:1009400052E40E9412090E94550869830F3528F06D
:1009500084E090E09B838A8302C01B821A8207385E
:1009600020F081E090E09B838A831F3528F084E0AB
:1009700090E09D838C8304C083E090E09D838C8312
:10098000173820F082E090E09D838C83DF91CF9137
:100990001F910F9108950F931F93CF93DF938C01B5
:1009A00086E090E00E946204D82F87E090E00E94E9
:1009B0006204C82F6D2F70E080E090E00E948408F0
:1009C00020E030E04FE753E40E94E30720E030E00E
:1009D00048EC52E40E9412090E945508F801608315
:1009E0006C2F70E080E090E00E94840820E030E00E
:1009F0004FE753E40E94E30720E030E048EC52E484
:100A00000E9412090E945508F8016183DF91CF917D
:100A10001F910F9108950E94570408950E94540455
:100A20000895806B0E9454040895CF93C82F8F704F
:100A30000E9454048C2F82958F7080610E94540410
:100A4000CF910895CF93C82F862F0E9415058C2F24
:100A50000E941105CF91089580E00E94150580E065
:100A60000E9411050895CF93DF930E94110580E045
:100A70000E941505C0E8D0E080E00E94570421974D
:100A8000D9F7DF91CF910895CF93C0E08C2F0E94CA
:100A90003305CF5FC830D1F70E942C05CF91089560
:100AA0008EEA0E94540481EA0E9454048AED0E9456
:100AB000540482E10E94540488EC0E94540488EAA1
:100AC0000E9454048FE30E94540485ED0E94540454
:100AD00080E80E94540481E80E94540480E50E944A
:100AE000540489ED0E94540481E20E94540480E27F
:100AF0000E94540482E00E9454048BED0E9454042E
:100B000080E30E9454048DEA0E94540480E00E9415
:100B1000540484EA0E94540486EA0E9454048FEA32
:100B20000E9454040E9444050E942C050895CF930E
:100B3000C82F81E80E9454048C2F0E945404CF9146
:100B4000089585EA0E945404089584EA0E9454049A
:100B500008958EEA0E94540408958FEA0E94540476
:100B60000895CF93C82F80E20E9454048C2F0E94D6
:100B70005404CF9108950F931F93CF93DF9324E0F4
:100B80008202C0011124C0E0D0E08C01005811099C
:100B9000F801EC0FFD1FE059FF4F84910E945704AC
:100BA0002196C430D105A1F7DF91CF911F910F910C
:100BB0000895CF93DF93EC018881882331F021964B
:100BC0000E94BB0589918111FBCFDF91CF910895E0
:100BD000CF93DF93CDB7DEB7C455D1090FB6F894E4
:100BE000DEBF0FBECDBF60E080E00E9422058DE138
:100BF000EAEFF1E0DE01119601900D928A95E1F79E
:100C000082E1E7E1F2E0DE015E9601900D928A95C5
:100C1000E1F785E1E9E2F2E0DE01D09601900D9284
:100C20008A95E1F780E1EEE3F2E0DE01AB5BBF4FD6
:100C300001900D928A95E1F760E080E00E94220524
:100C4000CE0101960E94D90563E081E00E94220551
:100C5000CE014E960E94D90563E082E00E942205F3
:100C6000CE01C0960E94D90563E083E00E94220570
:100C7000CE018B5B9F4F0E94D905CC5ADF4F0FB638
:100C8000F894DEBF0FBECDBFDF91CF9108950F93D3
:100C90001F93CF93DF9300D01F92CDB7DEB78C01A7
:100CA0008DE29EE3A0E089839A83AB830E94E805EE
:100CB00060E0F80180810E942205CE0101960E9429
:100CC000D9050F900F900F90DF91CF911F910F9149
:100CD00008950F931F93CF93DF93EC018B01CB010A
:100CE0000E946D04F801848195818230910531F470
:100CF0008881998101969983888307C0039729F495
:100D0000888199810197998388832881398123700B
:100D10003078332334F4215031092C6F3F6F2F5F2B
:100D20003F4F39832883DF91CF911F910F91089511
:100D3000CF93DF93CDB7DEB7C358D1090FB6F89480
:100D4000DEBF0FBECDBF60E083E00E94220500E061
:100D500010E00F2EFAE16F2EF02D5E0120E7A20EBB
:100D6000B11C0F2EFEE07F2EF02D6E0181E6C80E25
:100D7000D11C0F2EFFE08F2EF02D7E0191E5E90EA4
:100D8000F11C6894992494F80F2EF3E04F2E512C07
:100D9000F02DE0E5F2E0DE01D796862D01900D9270
:100DA0008A95E1F7EAE6F2E0D501872D01900D92F0
:100DB0008A95E1F7E8E7F2E0D601882D01900D92DF
:100DC0008A95E1F7E7E8F2E0D701892D01900D92CD
:100DD0008A95E1F7C258DF4FB982A882CE57D0403A
:100DE000C058DF4FD982C882C058D040CE57DF4F9D
:100DF000F982E882C258D04083E00E941105CE01FA
:100E0000C7960E94D90560E084E00E942205C801CF
:100E1000B2010E94BB07FC01EE0FFF1F8EE790E0BE
:100E20008C0F9D1FE80FF91F808191810E94D905C9
:100E30009FEF2FEF8EE0915020408040E1F700C0FF
:100E4000000084E00E9433050F5F1F4F063011053C
:100E500009F09FCF0E94440560E083E00E942205D4
:100E600081E1E7E9F2E0DE01119601900D928A95A9
:100E7000E1F78DE1E8EAF2E0DE01529601900D9291
:100E80008A95E1F7CE0101960E94D90560E084E0E1
:100E90000E942205CE0142960E94D9059FEF2FEFB6
:100EA0008CE2915020408040E1F700C000C00E94D9
:100EB000440581E090E098AB8FA7BE016F5C7F4F47
:100EC000CE018F960E944706CE018F960E9469063A
:100ED00085E00E9411058EE492E00E94D9059FEF03
:100EE0002FEF8EE0915020408040E1F700C00000DD
:100EF0000E944405E2CFCF93DF93CDB7DEB72A97A8
:100F00000FB6F894DEBF0FBECDBF0F2EFBECEF2E59
:100F1000F2E0FF2EF02D8E01095F1F4F60E080E0B0
:100F20000E942205CE0101960E946D04DD80CE80D4
:100F300085EC92E00E94D90560E081E00E942205E4
:100F4000CF92DF92FF92EF921F930F930E946C0A51
:100F5000C8010E94D9052FEF8FE791E02150804012
:100F60009040E1F700C000C00F900F900F900F90DD
:100F70000F900F90D3CF97FB072E16F4009407D055
:100F800077FD09D00E94CF0707FC05D03EF490956D
:100F900081959F4F0895709561957F4F0895AA1B85
:100FA000BB1B51E107C0AA1FBB1FA617B70710F054
:100FB000A61BB70B881F991F5A95A9F78095909586
:100FC000BC01CD0108950E94F7070C94D8080E9437
:100FD000D10858F00E94CA0840F029F45F3F29F078
:100FE0000C94C10851110C940C090C94C7080E9470
:100FF000E90868F39923B1F3552391F3951B550B39
:10100000BB27AA2762177307840738F09F5F5F4FDB
:10101000220F331F441FAA1FA9F335D00E2E3AF01A
:10102000E0E832D091505040E695001CCAF72BD032
:10103000FE2F29D0660F771F881FBB1F2617370783
:101040004807AB07B0E809F0BB0B802DBF01FF27B5
:1010500093585F4F3AF09E3F510578F00C94C108C9
:101060000C940C095F3FE4F3983ED4F38695779592
:101070006795B795F7959F5FC9F7880F911D96956E
:10108000879597F90895E1E0660F771F881FBB1FCA
:10109000621773078407BA0720F0621B730B840B77
:1010A000BA0BEE1F88F7E09508950E94F10888F0CA
:1010B0009F5798F0B92F9927B751B0F0E1F0660F1C
:1010C000771F881F991F1AF0BA95C9F714C0B1305D
:1010D00091F00E940B09B1E008950C940B09672F61
:1010E000782F8827B85F39F0B93FCCF3869577958C
:1010F0006795B395D9F73EF4909580957095619575
:101100007F4F8F4F9F4F0895E89409C097FB3EF49F
:1011100090958095709561957F4F8F4F9F4F992344
:10112000A9F0F92F96E9BB279395F69587957795C2
:101130006795B795F111F8CFFAF4BB0F11F460FF82
:101140001BC06F5F7F4F8F4F9F4F16C0882311F0DA
:1011500096E911C0772321F09EE8872F762F05C0EE
:10116000662371F096E8862F70E060E02AF09A9589
:10117000660F771F881FDAF7880F9695879597F97E
:10118000089597F99F6780E870E060E008959FEF09
:1011900080EC089500240A9416161706180609060E
:1011A000089500240A9412161306140605060895DD
:1011B000092E0394000C11F4882352F0BB0F40F465
:1011C000BF2B11F460FF04C06F5F7F4F8F4F9F4FA5
:1011D000089557FD9058440F551F59F05F3F71F027
:1011E0004795880F97FB991F61F09F3F79F087958E
:1011F0000895121613061406551FF2CF4695F1DF17
:1012000008C0161617061806991FF1CF86957105A6
:10121000610508940895E894BB2766277727CB01DA
:1012200097F908950E9425090C94D8080E94CA08CD
:1012300038F00E94D10820F0952311F00C94C108D9
:101240000C94C70811240C940C090E94E90870F34F
:10125000959FC1F3950F50E0551F629FF001729F5B
:10126000BB27F00DB11D639FAA27F00DB11DAA1F6A
:10127000649F6627B00DA11D661F829F2227B00DB7
:10128000A11D621F739FB00DA11D621F839FA00D42
:10129000611D221F749F3327A00D611D231F849F92
:1012A000600D211D822F762F6A2F11249F575040E9
:1012B0009AF0F1F088234AF0EE0FFF1FBB1F661F64
:1012C000771F881F91505040A9F79E3F510580F02D
:1012D0000C94C1080C940C095F3FE4F3983ED4F3DE
:1012E000869577956795B795F795E7959F5FC1F7D1
:1012F000FE2B880F911D9695879597F908958F92EB
:101300009F92AF92BF92CF92DF92EF92FF92CF93D4
:10131000DF93EC01688179818A819B816115710578
:101320008105910521F464E279ED8BE597E02DE1EB
:1013300033EF41E050E00E945D0E49015A019B01EC
:10134000AC01A7EAB1E40E947C0E6B017C01ACEE1B
:10135000B4EFA50194010E948A0EDC01CB018C0D33
:101360009D1DAE1DBF1DB7FF03C00197A109B04869
:1013700088839983AA83BB839F77DF91CF91FF9066
:10138000EF90DF90CF90BF90AF909F908F90089597
:101390000E947F09089580E091E00E947F090895EE
:1013A000A0E0B0E08093000190930101A0930201BE
:1013B000B093030108950F931F93CF93DF9300978A
:1013C00031F46115710519F480E090E03AC08B01A9
:1013D000EC016EE070E081E090E00E94610CFC01A5
:1013E000892B91F380E883830115110571F0138730
:1013F000028781E883838091CE029091CF02892B6E
:1014000021F4F093CF02E093CE022097C9F0D18768
:10141000C0878381826083838091D0029091D102C2
:10142000892B71F4F093D102E093D0028091D20223
:101430009091D302892B21F4F093D302E093D2024E
:10144000CF01DF91CF911F910F910895A0E0B0E0FF
:10145000ECE2FAE00C949F0EAE014B5F5F4FFA0195
:1014600061917191AF018091D0029091D1020E945F
:101470008F0AE2E00C94BB0E0F931F93CF93DF9380
:10148000E091D002F091D102238121FF1BC08C0199
:10149000D0E0C0E0F80181918F016091D00270919D
:1014A000D102DB011896ED91FC911997882331F058
:1014B0000995892B79F3DFEFCFEFECCF8AE009951F
:1014C000892B19F08FEF9FEF02C08D2F9C2FDF919A
:1014D000CF911F910F910895AEE0B0E0E2E7FAE0FE
:1014E0000C949D0E0D891E8986E08C831A830983D6
:1014F0008FEF9FE79E838D83AE01475E5F4F6F89BD
:10150000788DCE0101960E948F0A2F813885F801CF
:10151000E20FF31F10822E96E4E00C94B90EACE0BB
:10152000B0E0E5E9FAE00C948F0E7C016B018A01D2
:10153000FC0117821682838181FFBDC1CE01019615
:101540004C01F7019381F60193FD859193FF819101
:101550006F01882309F4ABC1853239F493FD85917D
:1015600093FF81916F01853229F4B70190E00E94C9
:10157000C70DE7CF512C312C20E02032A0F48B3264
:1015800069F030F4803259F0833269F420612CC064
:101590008D3239F0803339F4216026C02260246016
:1015A00023C0286021C027FD27C030ED380F3A3016
:1015B00078F426FF06C0FAE05F9E300D1124532E0A
:1015C00013C08AE0389E300D1124332E20620CC0E7
:1015D0008E3221F426FD6BC1206406C08C3611F4D6
:1015E000206802C0883641F4F60193FD859193FF8F
:1015F00081916F018111C1CF982F9F7D95549330B8
:1016000028F40C5F1F4FFFE3F9830DC0833631F0E0
:10161000833771F0833509F05BC022C0F801808107
:1016200089830E5F1F4F44244394512C540115C0ED
:101630003801F2E06F0E711CF801A080B18026FF26
:1016400003C0652D70E002C06FEF7FEFC5012C87EE
:101650000E94BC0D2C0183012C852F77222E17C0F0
:101660003801F2E06F0E711CF801A080B18026FFF6
:1016700003C0652D70E002C06FEF7FEFC5012C87BE
:101680000E94AA0D2C012C852068222E830123FCA8
:101690001BC0832D90E048165906B0F4B70180E2D4
:1016A00090E00E94C70D3A94F4CFF50127FC859194
:1016B00027FE81915F01B70190E00E94C70D3110B4
:1016C0003A94F1E04F1A51084114510471F7E5C002
:1016D000843611F0893639F5F80127FF07C060819B
:1016E0007181828193810C5F1F4F08C0608171817D
:1016F000072E000C880B990B0E5F1F4F2F76722E52
:1017000097FF09C090958095709561957F4F8F4F99
:101710009F4F2068722E2AE030E0A4010E94FF0D46
:10172000A82EA81844C0853729F42F7EB22E2AE0AF
:1017300030E025C0F22FF97FBF2E8F36C1F018F4AC
:10174000883579F0B4C0803719F0883721F0AFC000
:101750002F2F2061B22EB4FE0DC08B2D8460B82EC9
:1017600009C024FF0AC09F2F9660B92E06C028E04A
:1017700030E005C020E130E002C020E132E0F801B5
:10178000B7FE07C060817181828193810C5F1F4F1A
:1017900006C06081718180E090E00E5F1F4FA40160
:1017A0000E94FF0DA82EA818FB2DFF777F2E76FE36
:1017B0000BC0372D3E7FA51450F474FE0AC072FC96
:1017C00008C0372D3E7E05C0BA2C372D03C0BA2C79
:1017D00001C0B52C34FF0DC0FE01EA0DF11D808162
:1017E000803311F4397E09C032FF06C0B394B3943C
:1017F00004C0832F867809F0B39433FD13C030FF03
:1018000006C05A2CB31418F4530C5B18B32CB31441
:1018100068F4B70180E290E03C870E94C70DB39462
:101820003C85F5CFB31410F43B1801C0312C34FFC4
:1018300012C0B70180E390E03C870E94C70D3C8551
:1018400032FF17C031FD03C088E790E002C088E591
:1018500090E0B7010CC0832F867859F031FF02C0A9
:101860008BE201C080E237FD8DE2B70190E00E947B
:10187000C70DA51438F4B70180E390E00E94C70DAE
:101880005A94F7CFAA94F401EA0DF11D8081B701B3
:1018900090E00E94C70DA110F5CF332009F451CE7E
:1018A000B70180E290E00E94C70D3A94F6CFF701AD
:1018B0008681978102C08FEF9FEF2C96E2E10C9416
:1018C000AB0E0F931F93CF93DF93869F8001879F6B
:1018D000100D969F100D1124C8010E947D0CEC0183
:1018E000009729F0A80160E070E00E94B50DCE01DC
:1018F000DF91CF911F910F910895CF93DF938230A5
:10190000910510F482E090E0E091D602F091D702C8
:1019100020E030E0C0E0D0E0309711F1408151810B
:1019200048175907C0F04817590761F4828193811D
:10193000209719F09B838A832BC09093D7028093C2
:10194000D60226C02115310519F04217530718F4A5
:101950009A01BE01DF01EF010280F381E02DDCCFAF
:101960002115310509F1281B390B2430310590F47C
:1019700012968D919C9113976115710521F0FB01D1
:101980009383828304C09093D7028093D602FD0193
:10199000329644C0FD01E20FF31F819391932250D0
:1019A00031092D933C933AC02091D4023091D50255
:1019B000232B41F420910601309107013093D50289
:1019C0002093D402209104013091050121153105A5
:1019D00041F42DB73EB74091080150910901241BF5
:1019E000350BE091D402F091D502E217F307A0F491
:1019F0002E1B3F0B2817390778F0AC014E5F5F4F65
:101A00002417350748F04E0F5F1F5093D5024093BF
:101A1000D4028193919302C0E0E0F0E0CF01DF9126
:101A2000CF9108950F931F93CF93DF93009709F4FD
:101A30008CC0FC013297138212820091D602109161
:101A4000D7020115110581F420813181820F931F86
:101A50002091D4023091D5022817390779F5F093F7
:101A6000D502E093D40271C0D80140E050E0AE1737
:101A7000BF0750F412962D913C911397AD0121159B
:101A8000310509F1D901F3CF9D01DA0133832283B6
:101A900060817181860F971F8217930769F4EC01AB
:101AA00028813981260F371F2E5F3F4F31832083D6
:101AB0008A819B8193838283452B29F4F093D702FB
:101AC000E093D60242C01396FC93EE931297ED0179
:101AD000499159919E01240F351FE217F30771F4C4
:101AE00080819181840F951F029611969C938E930D
:101AF0008281938113969C938E931297E0E0F0E09D
:101B0000D80112968D919C911397009719F0F801C6
:101B10008C01F6CF8D919C9198012E5F3F4F820FE3
:101B2000931F2091D4023091D5022817390769F408
:101B3000309729F41092D7021092D60202C0138275
:101B400012821093D5020093D402DF91CF911F919E
:101B50000F910895FC010590615070400110D8F775
:101B6000809590958E0F9F1F0895DC0101C06D93A5
:101B700041505040E0F70895FC01615070400190E1
:101B80000110D8F7809590958E0F9F1F08950F93A1
:101B90001F93CF93DF93FB01238121FD03C08FEFC0
:101BA0009FEF28C022FF16C04681578124813581CE
:101BB0004217530744F4A081B1819D012F5F3F4F2D
:101BC000318320838C93268137812F5F3F4F37836A
:101BD000268310C0EB01092F182F0084F185E02D1A
:101BE0000995892BE1F68E819F8101969F838E83D3
:101BF000812F902FDF91CF911F910F910895FA01BE
:101C0000AA27283051F1203181F1E8946F936E7F3B
:101C10006E5F7F4F8F4F9F4FAF4FB1E03ED0B4E02C
:101C20003CD0670F781F891F9A1FA11D680F791F6D
:101C30008A1F911DA11D6A0F711D811D911DA11D7E
:101C400020D009F468943F912AE0269F112430198E
:101C5000305D3193DEF6CF010895462F4770405D29
:101C60004193B3E00FD0C9F7F6CF462F4F70405DD8
:101C70004A3318F0495D31FD4052419302D0A9F733
:101C8000EACFB4E0A6959795879577956795BA952D
:101C9000C9F700976105710508959B01AC010A2EF3
:101CA00006945795479537952795BA95C9F7620FCA
:101CB000731F841F951FA01D0895052E97FB1EF40A
:101CC00000940E94740E57FD07D00E94C60E07FCB8
:101CD00003D04EF40C94740E509540953095219598
:101CE0003F4F4F4F5F4F0895909580957095619548
:101CF0007F4F8F4F9F4F08950E94E80EA59F900D34
:101D0000B49F900DA49F800D911D11240895B7FFDD
:101D10000C947C0E0E947C0E821B930B08952F92D4
:101D20003F924F925F926F927F928F929F92AF926B
:101D3000BF92CF92DF92EF92FF920F931F93CF93B8
:101D4000DF93CDB7DEB7CA1BDB0B0FB6F894DEBF4F
:101D50000FBECDBF09942A88398848885F846E8475
:101D60007D848C849B84AA84B984C884DF80EE80BF
:101D7000FD800C811B81AA81B981CE0FD11D0FB6C8
:101D8000F894DEBF0FBECDBFED010895A1E21A2E7B
:101D9000AA1BBB1BFD010DC0AA1FBB1FEE1FFF1F0F
:101DA000A217B307E407F50720F0A21BB30BE40B5F
:101DB000F50B661F771F881F991F1A9469F76095A6
:101DC0007095809590959B01AC01BD01CF01089560
:101DD000A29FB001B39FC001A39F700D811D11246C
:101DE000911DB29F700D811D1124911D0895F894CD
:021DF000FFCF23
:101DF200010000000000D80220005374617274696F
:101E02006E67205352414D20746573742E2E2E003E
:101E12005772697465207068617365206572726FAC
:101E2200723A206578745F72616D5B2534645D205F
:101E32003D2025303258202873686F756C6420620B
:101E4200652025303258290A005265747269657618
:101E5200616C207068617365206572726F723A20DE
:101E62006578745F72616D5B2534645D203D202569
:101E7200303258202873686F756C642062652025A3
:101E8200303258290A005352414D20746573742030
:101E9200636F6D706C657465642077697468200A7D
:101EA200253464206572726F727320696E207772B6
:101EB20069746520706861736520616E64200A250B
:101EC2003464206572726F727320696E2072657459
:101ED20072696576616C2070686173650A0A0079BF
:101EE2005F6469723A2025640A0043686F6F736504
:101EF200206F6E65206F662074686520666F6C6C5B
:101F02006F77696E673A00202020312E2053756367
:101F12006B2061206469636B00202020322E2050E8
:101F22006C61792070696E6720706F6E6700202087
:101F320020332E20457869742067616D6500310079
:101F42002057656C636F6D6520746F2074686973C8
:101F52002073657373696F6E200020506C65617326
:101F62006520776169742E0020506C65617365206D
:101F7200776169742E2E0020506C6561736520773D
:101F82006169742E2E2E0055736520746865204A8F
:101F92006F79737469636B00746F206E6176696721
:101FA200617465207468726F756768207468652053
:0E1FB2006D656E750068656C6C6F00256400CF
:00000001FF
