:100000000C9460030C947D030C947D030C947D038D
:100010000C947D030C947D030C947D030C947D0360
:100020000C947D030C947D030C947D030C947D0350
:100030000C947D030C947D030C947D030C947D0340
:100040000C947D030C947D030C947D030C947D0330
:100050000C947D030C947D030C947D030C947D0320
:100060000C947D030C947D030C947D030C947D0310
:1000700000000000005C00000C000C007C287C28C4
:1000800058DC68002410480028542840000C000068
:10009000007884008478000054385400107C1000EC
:1000A00080400000101010000040000060100C00A4
:1000B00038543800487C40004864580044542C00B0
:1000C0001C107C005C5424003854240064140C0080
:1000D00068542C0048543800004800008048000054
:1000E0001028440028282800442810000454080040
:1000F00038445C00781478007C5428003844280088
:100100007C4438007C5444007C140400384474005F
:100110007C107C00447C440020403C007C106C003F
:100120007C4040007C187C0078103C00384438004B
:100130007C1408003844B8007C146800485424003B
:10014000047C04007C407C003C603C007C307C00F3
:100150006C106C000C700C0064544C00007C44006B
:100160000C106000447C00000804080080808000BF
:1001700000040800304878007C48300030484800CF
:1001800030487C00306850001078140090A8780047
:100190007C08700050744000808074007C106800FF
:1001A000447C4000781078007808700030483000B7
:1001B000F82810003048F80078100800505828003F
:1001C000083C4800384078003840380078207800F3
:1001D0004830480098A0780048685800107884009B
:1001E000007C00008478100008040804000000006F
:1001F0000000005F00000007000700147F147F1458
:10020000242A7F2A1223130864623649552250009B
:1002100005030000001C2241000041221C00082AA6
:100220001C2A0808083E080800503000000808088A
:100230000808006060000020100804023E51494593
:100240003E00427F400042615149462141454B31C9
:100250001814127F1027454545393C4A4949300159
:10026000710905033649494936064949291E0036B0
:100270003600000056360000000814224114141401
:10028000141441221408000201510906324979412F
:100290003E7E1111117E7F494949363E414141223E
:1002A0007F4141221C7F494949417F090901013EA3
:1002B000414151327F0808087F00417F41002040C2
:1002C000413F017F081422417F404040407F0204AB
:1002D000027F7F0408107F3E4141413E7F090909AA
:1002E000063E4151215E7F09192946464949493157
:1002F00001017F01013F4040403F1F2040201F7F00
:100300002018207F631408146303047804036151E8
:1003100049454300007F4141020408102041417FCC
:100320000000040201020440404040400001020479
:100330000020545454787F4844443838444444207E
:10034000384444487F3854545418087E0901020840
:100350001454543C7F0804047800447D400020403D
:10036000443D00007F10284400417F40007C041879
:1003700004787C0804047838444444387C14141409
:1003800008081414187C7C080404084854545420A9
:10039000043F4440203C4040207C1C2040201C3C2A
:1003A0004030403C44281028440C5050503C446499
:1003B000544C44000836410000007F0000004136E4
:1003C000080002010302010000000000000000001C
:1003D000065F5F0600000000070700070700001423
:1003E0007F7F147F7F1400242E6B6B3A120000462F
:1003F0006630180C666200307A4F5D377A48000428
:1004000007030000000000001C3E634100000000E4
:1004100041633E1C000000082A3E1C1C3E2A0808BE
:10042000083E3E0808000000A0E060000000000850
:100430000808080808000000006060000000006074
:1004400030180C060301003E7F594D7F3E000042EC
:10045000427F7F40400000627359496F660000226E
:100460006349497F360000181C16137F7F10002750
:100470006745457D3900003C7E4B497930000003DB
:100480006371190F070000367F49497F3600000667
:100490004F49693F1E000000006C6C000000000026
:1004A000A0EC6C00000000081C3663410000001442
:1004B00014141414140000004163361C08000002D8
:1004C0000351590F0600003E7F415D5D1F1E007CF9
:1004D0007E13137E7C0000417F7F49497F36001CDC
:1004E0003E634141632200417F7F41637F1C0041A5
:1004F0007F7F495D416300417F7F491D0103001CEF
:100500003E6341517372007F7F08087F7F000000C7
:10051000417F7F41000000307040417F3F0100413A
:100520007F7F081C776300417F7F41406070007FC0
:100530007F060C067F7F007F7F060C187F7F001CE4
:100540003E6341633E1C00417F7F49090F06001E48
:100550003F21717F5E0000417F7F19396F46002681
:10056000674D597B32000003417F7F410300007FCC
:100570007F40407F7F00001F3F60603F1F00007F83
:100580007F3018307F7F0063771C081C776300077B
:100590004F78784F0700006773594D47637100002B
:1005A0007F7F41410000000103060C18306000000D
:1005B00041417F7F000000080C0603060C08008004
:1005C000808080808080800000030704000000207D
:1005D0007454543C784000413F7F44447C38003898
:1005E0007C44446C280000307848493F7F40003804
:1005F0007C54545C180000487E7F49030200009838
:10060000BCA4A4F87C0400417F7F08047C7800002F
:10061000447D7D4000000040C484FD7D0000004119
:100620007F7F10386C440000417F7F400000007CD9
:100630007C0C180C7C78007C7C04047C78000038EE
:100640007C44447C38000084FCF8A4243C18001846
:100650003C24A4F8FC8400447C78441C1800004826
:100660005C54547424000000043E7F442400003C89
:100670007C40403C7C40001C3C60603C1C00003CDA
:100680007C6030607C3C00446C3810386C44009CCA
:10069000BCA0A0FC7C00004C64745C4C64000008AE
:1006A000083E7741410000000000777700000041DC
:1006B00041773E0808000002030103020301000025
:1006C00011241FBECFEFD4E0DEBFCDBF12E0A0E00B
:1006D000B1E0E4E4F1E202C005900D92A838B10760
:1006E000D9F722E0A8E8B2E001C01D92A23AB20711
:1006F000E1F70E94CA030C94A0100C940000EF9242
:10070000FF920F931F93CF93DF938AE091E00E94B3
:10071000350D0E94C40C7C010E94C90CC0E0D8E1D8
:1007200000E010E00E94C40C88839881981711F0B3
:100730000F5F1F4F2196C11580E2D80799F7C701B7
:100740000E94C90CC0E0D8E1E12CF12C0E94C40C3D
:100750009881981719F08FEFE81AF80A2196C115B9
:1007600080E2D80799F7FF92EF921F930F9380E2F0
:1007700091E09F938F930E941F0D0F900F900F9009
:100780000F900F900F90DF91CF911F910F91FF90DD
:10079000EF900895CF93DF9300D000D000D0CDB775
:1007A000DEB78FE190E00E94FB030E9425040E94C7
:1007B00028050E9404050E94240809E711E0CE01E3
:1007C00001960E9445040E947F038E818F938D8144
:1007D0008F938C818F938B818F931F930F930E94A4
:1007E0001F0D8FEF0E9493050F900F900F900F90A9
:1007F0000F900F90E4CF90BD89B98EE880BD1BB8F3
:1008000088E18AB96FE174E08DE094E00E94D40C35
:1008100008955D9BFECF8CB90895CF93C82F8A3081
:1008200019F48DE00E9409048C2F0E94090480E0D5
:1008300090E0CF9108955F9BFECF8CB108950E9408
:100840001B04082E000C990B089585B7806885BF9E
:1008500080B7806280BF08958093001008958093D0
:1008600000120895FC01F85E60830895FC01F85EB3
:1008700080810895E0E0F4E180838CEC94E00197BE
:10088000F1F700C00000808108950F931F93CF936C
:10089000DF93EC0185E090E00E943A04082F84E0A9
:1008A00090E00E943A04182F602F70E080E090E002
:1008B0000E94500A20E030E04FE753E40E94AF0965
:1008C00020E030E048EC52E40E94DE0A0E94210A57
:1008D0006883612F70E080E090E00E94500A20E081
:1008E00030E04FE753E40E94AF0920E030E048ECED
:1008F00052E40E94DE0A0E94210A69830F3528F023
:1009000084E090E09B838A8302C01B821A820738AE
:1009100020F081E090E09B838A831F3528F084E0FB
:1009200090E09D838C8304C083E090E09D838C8362
:10093000173820F082E090E09D838C83DF91CF9187
:100940001F910F9108950F931F93CF93DF938C0105
:1009500086E090E00E943A04D82F87E090E00E9461
:100960003A04C82F6D2F70E080E090E00E94500A9A
:1009700020E030E04FE753E40E94AF0920E030E090
:1009800048EC52E40E94DE0A0E94210AF8016083CA
:100990006C2F70E080E090E00E94500A20E030E090
:1009A0004FE753E40E94AF0920E030E048EC52E406
:1009B0000E94DE0A0E94210AF8016183DF91CF9133
:1009C0001F910F9108950E942F0408950E942C04F6
:1009D0000895806B0E942C040895CF93C82F8F70C8
:1009E0000E942C048C2F82958F7080610E942C04B1
:1009F000CF910895CF93C82F862F0E94ED048C2F9E
:100A00000E94E904CF91089580E00E94ED0480E007
:100A10000E94E9040895CF93DF930E94E90480E0E7
:100A20000E94ED04C0E8D0E080E00E942F042197EE
:100A3000D9F7DF91CF910895CF93C0E08C2F0E941A
:100A40000B05CF5FC830D1F70E940405CF91089500
:100A50008EEA0E942C0481EA0E942C048AED0E94F6
:100A60002C0482E10E942C0488EC0E942C0488EA69
:100A70000E942C048FE30E942C0485ED0E942C041C
:100A800080E80E942C0481E80E942C0480E50E94EA
:100A90002C0489ED0E942C0481E20E942C0480E247
:100AA0000E942C0482E00E942C048BED0E942C04F6
:100AB00080E30E942C048DEA0E942C0480E00E94B6
:100AC0002C0484EA0E942C0486EA0E942C048FEAFB
:100AD0000E942C040E941C050E9404050895CF93D7
:100AE000C82F81E80E942C048C2F0E942C04CF91E7
:100AF000089585EA0E942C04089584EA0E942C043B
:100B000008958EEA0E942C0408958FEA0E942C0416
:100B10000895CF93C82F80E20E942C048C2F0E944E
:100B20002C04CF9108950F931F93CF93DF9324E06C
:100B30008202C0011124C0E0D0E08C0100581109EC
:100B4000F801EC0FFD1FE059FF4F84910E942F0424
:100B50002196C430D105A1F7DF91CF911F910F915C
:100B60000895CF93DF93EC018881882331F021969B
:100B70000E94930589918111FBCFDF91CF91089558
:100B8000EF92FF920F931F93CF93DF937C010E940C
:100B90001C05D7011696CD91DC91179718968D916B
:100BA0009C911997C817D907B1F000E010E06AE0EE
:100BB000802F0E94FA04888199810E94B1050A84DD
:100BC000DB85C02D0F5F1F4FF701208531852C1766
:100BD0003D0769F702C000E010E06AE0802F0E9444
:100BE000FA04D7011896ED91FC91199780819181B3
:100BF0000E94B105DF91CF911F910F91FF90EF906F
:100C000008950E94FA0488E10E94E30488E10E94AA
:100C1000E3048EE70E94E3048CE30E94E30488E18E
:100C20000E94E3040895CF93DF930E94FA04CAE080
:100C3000D0E080E00E94E3042197D9F7DF91CF91C3
:100C40000895AF92BF92CF92DF92EF92FF920F93EF
:100C50001F93FC0171836083578746873383228308
:100C600015830483F782E682D186C086B18AA08A82
:100C70001F910F91FF90EF90DF90CF90BF90AF90BA
:100C800008956F927F928F929F92AF92BF92CF9270
:100C9000DF92EF92FF920F931F93CF93DF9382E146
:100CA00090E00E944B0B8C019093970280939602E8
:100CB00082E190E00E944B0B4C019093950280934F
:100CC000940282E190E00E944B0B7C01909393028E
:100CD0008093920282E190E00E944B0B3C01909342
:100CE00091028093900282E190E00E944B0BEC0114
:100CF00090938F0280938E0282E190E00E944B0BD2
:100D00005C0190938B0280938A0282E190E00E94C2
:100D10004B0B6C0190938D0280938C0282E190E0EA
:100D20000E944B0B909389028093880286E891E0A1
:100D3000F8019183808382E090E097878687138211
:100D40001282F582E482178306839186808640ECC6
:100D500055E0518B408B29E931E0F4013183208348
:100D600097878687138212821582148217830683DF
:100D700091868086118A108A21EA31E0F701318359
:100D8000208323E030E03787268713830283158290
:100D90001482F782E682D187C087118A108A6EEAB0
:100DA00071E0F301718360833787268713830283A1
:100DB00015821482F782E682D187C087118A108A51
:100DC0006CEB71E0798368833F872E871B830A83EE
:100DD000DD82CC82FF82EE82D987C887598B488B0F
:100DE00028EC31E0F6013183208397878687D3830F
:100DF000C28315821482D782C682B186A086118AE8
:100E0000108A2EED31E0F5013183208397878687A4
:100E1000D383C28315821482D782C682B186A0860C
:100E2000118A108AF8019386828615861486F40149
:100E30001386128615870487F701738662861586E6
:100E40001486F301D387C287F586E4861B861A864B
:100E50007D866C86F601B386A28615861486F5011A
:100E600013861286D586C486DF91CF911F910F918C
:100E7000FF90EF90DF90CF90BF90AF909F908F90BA
:100E80007F906F9008954F925F926F927F928F92B2
:100E90009F92AF92BF92CF92DF92EF92FF920F9309
:100EA0001F93CF93DF93CDB7DEB7CB57D1090FB6E2
:100EB000F894DEBF0FBECDBF60E083E00E94FA046D
:100EC00000E010E00F2EFAE14F2EF02D5E0128E633
:100ED000A20EB11C0F2EFEE05F2EF02D6E0189E5F3
:100EE000C80ED11C0F2EFFE06F2EF02D7E0199E46D
:100EF000E90EF11C6894772474F80F2EF3E08F2E1E
:100F0000912CF02DE0EFF1E0DE019F96842D019011
:100F10000D928A95E1F7EAE0F2E0D501852D019086
:100F20000D928A95E1F7E8E1F2E0D601862D019075
:100F30000D928A95E1F7E7E2F2E0D701872D019063
:100F40000D928A95E1F7E896BFAEAEAEE897EA96C5
:100F5000DFAECEAEEA97EC96FFAEEEAEEC9783E056
:100F60000E94E904CE018F960E94B10560E084E002
:100F70000E94FA04C801B4010E948709FC01EE0F27
:100F8000FF1F86E790E08C0F9D1FE80FF91F8081FF
:100F900091810E94B1059FEF2FEF8EE0915020408C
:100FA0008040E1F700C0000084E00E940B050F5F65
:100FB0001F4F0630110509F0A5CF0E941C0560E007
:100FC00083E00E94FA0481E1E7E3F2E0DE0111969A
:100FD00001900D928A95E1F78DE1E8E4F2E0DE01FF
:100FE000529601900D928A95E1F7CE0101960E94EA
:100FF000B10560E084E00E94FA04CE0142960E94AE
:10100000B1059FEF2FEF8CE2915020408040E1F737
:1010100000C000C00E941C05C558DF4F0FB6F894F1
:10102000DEBF0FBECDBFDF91CF911F910F91FF901B
:10103000EF90DF90CF90BF90AF909F908F907F9078
:101040006F905F904F900895CF93DF93CDB7DEB749
:1010500028970FB6F894DEBF0FBECDBF0E944106A1
:101060001A82198280919602909197029093890238
:1010700080938802DC011E96CD90DC901F970E9421
:10108000C0050F2EF5E6AF2EF2E0BF2EF02D0F2E8D
:10109000FDE66F2EF2E07F2EF02D0F2EF2E38F2E65
:1010A000912CF02D0F2EF5E02F2E312CF02D0F2E40
:1010B000FCE74F2EF2E05F2EF02DCE0103960E944A
:1010C00045048F8198858230910521F589819A8127
:1010D000892B81F4B1E0CB1AD108DA82C982E09180
:1010E0008802F0918902808591859093890280938E
:1010F000880236C089819A8101979A838983E09119
:101100008802F09189028485958590938902809365
:10111000880226C0039721F589819A81E1E0CE1AE1
:10112000D108C816D90669F41A821982E09188029A
:10113000F091890286819781909389028093880239
:101140000FC089819A8101969A838983E0918802F0
:10115000F091890282859385909389028093880219
:101160008D819E810197C1F4E0918802F0918902FE
:1011700084819581009741F10088F189E02D0995DE
:10118000E0918802F091890284819581909389028F
:10119000809388021A8219828D819E81892BA1F405
:1011A000E0918802F091890282819381009761F039
:1011B0009093890280938802DC015096ED91FC9116
:1011C000519709951A821982E0918802F09189025B
:1011D000C684D78489819A81B6010E9487099C01BF
:1011E000992324F422273327281B390B3A83298398
:1011F00089819A819F938F93BF92AF920E941F0D16
:10120000E0918802F091890281818F9380818F9390
:101210007F926F920E941F0D89819A8160E00E94E7
:1012200001068C81F401E81BF109CF01B1010E9494
:1012300087097B01772324F4EE24FF24E61AF70ABA
:10124000B7016F5F7F4F88EE93E00E948709062FFA
:10125000172F7F936F935F924F920E941F0D0FB6CF
:10126000F894DEBF0FBECDBF32E0E316F10484F088
:1012700010161106B4F480E090E0ACECB4E01197E5
:10128000F1F700C00000019680179107B1F709C07F
:10129000BFEFEFEFF2E0B150E040F040E1F700C007
:1012A00000C089819A8160E00E94130606CF0895EC
:1012B0000F931F93CF93DF93EC018B01CB010E941F
:1012C0004504F801848195818230910531F488814B
:1012D000998101969983888307C0039729F48881AF
:1012E0009981019799838883288139812370307887
:1012F000332334F4215031092C6F3F6F2F5F3F4F60
:1013000039832883DF91CF911F910F91089597FB27
:10131000072E16F4009407D077FD09D00E949B0990
:1013200007FC05D03EF4909581959F4F08957095E8
:1013300061957F4F0895AA1BBB1B51E107C0AA1FEF
:10134000BB1FA617B70710F0A61BB70B881F991F66
:101350005A95A9F780959095BC01CD0108950E94FA
:10136000C3090C94A40A0E949D0A58F00E94960A90
:1013700040F029F45F3F29F00C948D0A51110C9430
:10138000D80A0C94930A0E94B50A68F39923B1F322
:10139000552391F3951B550BBB27AA27621773079B
:1013A000840738F09F5F5F4F220F331F441FAA1F2F
:1013B000A9F335D00E2E3AF0E0E832D091505040EB
:1013C000E695001CCAF72BD0FE2F29D0660F771F99
:1013D000881FBB1F261737074807AB07B0E809F07F
:1013E000BB0B802DBF01FF2793585F4F3AF09E3F04
:1013F000510578F00C948D0A0C94D80A5F3FE4F301
:10140000983ED4F3869577956795B795F7959F5F46
:10141000C9F7880F911D9695879597F90895E1E092
:10142000660F771F881FBB1F621773078407BA07F1
:1014300020F0621B730B840BBA0BEE1F88F7E0954C
:1014400008950E94BD0A88F09F5798F0B92F9927F8
:10145000B751B0F0E1F0660F771F881F991F1AF09F
:10146000BA95C9F714C0B13091F00E94D70AB1E023
:1014700008950C94D70A672F782F8827B85F39F022
:10148000B93FCCF3869577956795B395D9F73EF438
:1014900090958095709561957F4F8F4F9F4F0895E0
:1014A000E89409C097FB3EF49095809570956195FE
:1014B0007F4F8F4F9F4F9923A9F0F92F96E9BB27B4
:1014C0009395F695879577956795B795F111F8CF30
:1014D000FAF4BB0F11F460FF1BC06F5F7F4F8F4F9B
:1014E0009F4F16C0882311F096E911C0772321F091
:1014F0009EE8872F762F05C0662371F096E8862F29
:1015000070E060E02AF09A95660F771F881FDAF77F
:10151000880F9695879597F9089597F99F6780E8C2
:1015200070E060E008959FEF80EC089500240A9435
:101530001616170618060906089500240A941216AE
:101540001306140605060895092E0394000C11F4E1
:10155000882352F0BB0F40F4BF2B11F460FF04C08E
:101560006F5F7F4F8F4F9F4F089557FD9058440FE7
:10157000551F59F05F3F71F04795880F97FB991FF2
:1015800061F09F3F79F087950895121613061406AF
:10159000551FF2CF4695F1DF08C01616170618063C
:1015A000991FF1CF86957105610508940895E89417
:1015B000BB2766277727CB0197F908950E94F10A88
:1015C0000C94A40A0E94960A38F00E949D0A20F00A
:1015D000952311F00C948D0A0C94930A11240C9409
:1015E000D80A0E94B50A70F3959FC1F3950F50E099
:1015F000551F629FF001729FBB27F00DB11D639FC5
:10160000AA27F00DB11DAA1F649F6627B00DA11D6A
:10161000661F829F2227B00DA11D621F739FB00D10
:10162000A11D621F839FA00D611D221F749F332780
:10163000A00D611D231F849F600D211D822F762F19
:101640006A2F11249F5750409AF0F1F088234AF0F6
:10165000EE0FFF1FBB1F661F771F881F9150504062
:10166000A9F79E3F510580F00C948D0A0C94D80A7E
:101670005F3FE4F3983ED4F3869577956795B795E9
:10168000F795E7959F5FC1F7FE2B880F911D969503
:10169000879597F90895CF93DF938230910510F4E1
:1016A00082E090E0E0919A02F0919B0220E030E02D
:1016B000C0E0D0E0309711F14081518148175907BF
:1016C000C0F04817590761F482819381209719F07F
:1016D0009B838A832BC090939B0280939A0226C09F
:1016E0002115310519F04217530718F49A01BE016C
:1016F000DF01EF010280F381E02DDCCF2115310500
:1017000009F1281B390B2430310590F412968D9184
:101710009C9113976115710521F0FB0193838283DE
:1017200004C090939B0280939A02FD01329644C0BC
:10173000FD01E20FF31F81939193225031092D9304
:101740003C933AC02091980230919902232B41F4A6
:101750002091020130910301309399022093980265
:1017600020910001309101012115310541F42DB77F
:101770003EB74091040150910501241B350BE091C7
:101780009802F0919902E217F307A0F42E1B3F0B89
:101790002817390778F0AC014E5F5F4F24173507E3
:1017A00048F04E0F5F1F5093990240939802819327
:1017B000919302C0E0E0F0E0CF01DF91CF91089576
:1017C0000F931F93CF93DF93009709F48CC0FC0114
:1017D00032971382128200919A0210919B02011596
:1017E000110581F420813181820F931F209198028D
:1017F000309199022817390779F5F0939902E0930F
:10180000980271C0D80140E050E0AE17BF0750F415
:1018100012962D913C911397AD012115310509F1D7
:10182000D901F3CF9D01DA01338322836081718175
:10183000860F971F8217930769F4EC01288139817D
:10184000260F371F2E5F3F4F318320838A819B8174
:1018500093838283452B29F4F0939B02E0939A02B1
:1018600042C01396FC93EE931297ED014991599162
:101870009E01240F351FE217F30771F480819181D7
:10188000840F951F029611969C938E93828193816B
:1018900013969C938E931297E0E0F0E0D801129695
:1018A0008D919C911397009719F0F8018C01F6CF58
:1018B0008D919C9198012E5F3F4F820F931F209135
:1018C0009802309199022817390769F4309729F462
:1018D00010929B0210929A0202C0138212821093FD
:1018E000990200939802DF91CF911F910F91089573
:1018F0008F929F92AF92BF92CF92DF92EF92FF9220
:10190000CF93DF93EC01688179818A819B81611596
:1019100071058105910521F464E279ED8BE597E08D
:101920002DE133EF41E050E00E94061049015A01D9
:101930009B01AC01A7EAB1E40E9425106B017C0178
:10194000ACEEB4EFA50194010E943310DC01CB0191
:101950008C0D9D1DAE1DBF1DB7FF03C00197A109D2
:10196000B04888839983AA83BB839F77DF91CF9107
:10197000FF90EF90DF90CF90BF90AF909F908F90AF
:1019800008950E94780C089586E091E00E94780CFA
:101990000895A0E0B0E08093060190930701A09322
:1019A0000801B093090108950F931F93CF93DF931C
:1019B000009731F46115710519F480E090E03AC0A8
:1019C0008B01EC016EE070E081E090E00E94370F47
:1019D000FC01892B91F380E883830115110571F0D7
:1019E0001387028781E8838380919C0290919D02F6
:1019F000892B21F4F0939D02E0939C022097C9F07B
:101A0000D187C08783818260838380919E02909179
:101A10009F02892B71F4F0939F02E0939E028091C4
:101A2000A0029091A102892B21F4F093A102E093EE
:101A3000A002CF01DF91CF911F910F910895A0E0F7
:101A4000B0E0E5E2FDE00C944810AE014B5F5F4F63
:101A5000FA0161917191AF0180919E0290919F0274
:101A60000E94650DE2E00C9464100F931F93CF93D6
:101A7000DF93E0919E02F0919F02238121FF1BC022
:101A80008C01D0E0C0E0F80181918F0160919E024D
:101A900070919F02DB011896ED91FC9119978823B4
:101AA00031F00995892B79F3DFEFCFEFECCF8AE0A6
:101AB0000995892B19F08FEF9FEF02C08D2F9C2F76
:101AC000DF91CF911F910F910895ACE0B0E0EBE66C
:101AD000FDE00C9438107C016B018A01FC01178237
:101AE0001682838181FFBDC1CE0101964C01F701B1
:101AF0009381F60193FD859193FF81916F01882376
:101B000009F4ABC1853239F493FD859193FF81913E
:101B10006F01853229F4B70190E00E94700FE7CF82
:101B2000512C312C20E02032A0F48B3269F030F4BB
:101B3000803259F0833269F420612CC08D3239F043
:101B4000803339F4216026C02260246023C02860DD
:101B500021C027FD27C030ED380F3A3078F426FF3A
:101B600006C0FAE05F9E300D1124532E13C08AE0A8
:101B7000389E300D1124332E20620CC08E3221F499
:101B800026FD6BC1206406C08C3611F4206802C0AB
:101B9000883641F4F60193FD859193FF81916F01A1
:101BA0008111C1CF982F9F7D9554933028F40C5FFD
:101BB0001F4FFFE3F9830DC0833631F0833771F097
:101BC000833509F05BC022C0F801808189830E5FF4
:101BD0001F4F44244394512C540115C03801F2E0A6
:101BE0006F0E711CF801A080B18026FF03C0652D27
:101BF00070E002C06FEF7FEFC5012C870E94650F78
:101C00002C0183012C852F77222E17C03801F2E09A
:101C10006F0E711CF801A080B18026FF03C0652DF6
:101C200070E002C06FEF7FEFC5012C870E94530F59
:101C30002C012C852068222E830123FC1BC0832DC0
:101C400090E048165906B0F4B70180E290E00E9497
:101C5000700F3A94F4CFF50127FC859127FE81910E
:101C60005F01B70190E00E94700F31103A94F1E0EB
:101C70004F1A51084114510471F7E5C0843611F030
:101C8000893639F5F80127FF07C0608171818281AB
:101C900093810C5F1F4F08C060817181072E000C7B
:101CA000880B990B0E5F1F4F2F76722E97FF09C07E
:101CB00090958095709561957F4F8F4F9F4F2068CD
:101CC000722E2AE030E0A4010E94A80FA82EA818C6
:101CD00044C0853729F42F7EB22E2AE030E025C09B
:101CE000F22FF97FBF2E8F36C1F018F4883579F0C6
:101CF000B4C0803719F0883721F0AFC02F2F206192
:101D0000B22EB4FE0DC08B2D8460B82E09C024FF06
:101D10000AC09F2F9660B92E06C028E030E005C0AB
:101D200020E130E002C020E132E0F801B7FE07C058
:101D300060817181828193810C5F1F4F06C0608139
:101D4000718180E090E00E5F1F4FA4010E94A80FF8
:101D5000A82EA818FB2DFF777F2E76FE0BC0372DFF
:101D60003E7FA51450F474FE0AC072FC08C0372DE3
:101D70003E7E05C0BA2C372D03C0BA2C01C0B52C4D
:101D800034FF0DC0FE01EA0DF11D8081803311F496
:101D9000397E09C032FF06C0B394B39404C0832FC8
:101DA000867809F0B39433FD13C030FF06C05A2C77
:101DB000B31418F4530C5B18B32CB31468F4B701C4
:101DC00080E290E03C870E94700FB3943C85F5CF91
:101DD000B31410F43B1801C0312C34FF12C0B7010A
:101DE00080E390E03C870E94700F3C8532FF17C073
:101DF00031FD03C088E790E002C088E590E0B701BC
:101E00000CC0832F867859F031FF02C08BE201C0ED
:101E100080E237FD8DE2B70190E00E94700FA514BB
:101E200038F4B70180E390E00E94700F5A94F7CF26
:101E3000AA94F401EA0DF11D8081B70190E00E949F
:101E4000700FA110F5CF332009F451CEB70180E215
:101E500090E00E94700F3A94F6CFF7018681978147
:101E600002C08FEF9FEF2C96E2E10C9454100F9379
:101E70001F93CF93DF93869F8001879F100D969FBE
:101E8000100D1124C8010E944B0BEC01009729F0A2
:101E9000A80160E070E00E945E0FCE01DF91CF915B
:101EA0001F910F910895FC01059061507040011041
:101EB000D8F7809590958E0F9F1F0895DC0101C083
:101EC0006D9341505040E0F70895FC01615070401F
:101ED00001900110D8F7809590958E0F9F1F08955F
:101EE0000F931F93CF93DF93FB01238121FD03C049
:101EF0008FEF9FEF28C022FF16C0468157812481B3
:101F000035814217530744F4A081B1819D012F5FB1
:101F10003F4F318320838C93268137812F5F3F4F42
:101F20003783268310C0EB01092F182F0084F18519
:101F3000E02D0995892BE1F68E819F8101969F8383
:101F40008E83812F902FDF91CF911F910F91089554
:101F5000FA01AA27283051F1203181F1E8946F93DA
:101F60006E7F6E5F7F4F8F4F9F4FAF4FB1E03ED080
:101F7000B4E03CD0670F781F891F9A1FA11D680F1E
:101F8000791F8A1F911DA11D6A0F711D811D911D51
:101F9000A11D20D009F468943F912AE0269F1124C6
:101FA0003019305D3193DEF6CF010895462F47702A
:101FB000405D4193B3E00FD0C9F7F6CF462F4F7085
:101FC000405D4A3318F0495D31FD4052419302D0E3
:101FD000A9F7EACFB4E0A695979587957795679589
:101FE000BA95C9F700976105710508959B01AC0189
:101FF0000A2E06945795479537952795BA95C9F7B0
:10200000620F731F841F951FA01D0895052E97FB57
:102010001EF400940E941D1057FD07D00E946F10FF
:1020200007FC03D04EF40C941D105095409530954C
:1020300021953F4F4F4F5F4F089590958095709534
:1020400061957F4F8F4F9F4F08950E949110A59FDC
:10205000900DB49F900DA49F800D911D11240895A3
:10206000B7FF0C9425100E942510821B930B089536
:102070002F923F924F925F926F927F928F929F9298
:10208000AF92BF92CF92DF92EF92FF920F931F9386
:10209000CF93DF93CDB7DEB7CA1BDB0B0FB6F89437
:1020A000DEBF0FBECDBF09942A88398848885F8477
:1020B0006E847D848C849B84AA84B984C884DF80E8
:1020C000EE80FD800C811B81AA81B981CE0FD11DCC
:1020D0000FB6F894DEBF0FBECDBFED010895A1E2AB
:1020E0001A2EAA1BBB1BFD010DC0AA1FBB1FEE1F92
:1020F000FF1FA217B307E407F50720F0A21BB30BDD
:10210000E40BF50B661F771F881F991F1A9469F758
:1021100060957095809590959B01AC01BD01CF01B4
:102120000895A29FB001B39FC001A39F700D811DB0
:102130001124911DB29F700D811D1124911D0895D0
:04214000F894FFCF41
:102144000000A2022000010000005374617274694F
:102154006E67205352414D20746573742E2E2E00E9
:102164005352414D207465737420636F6D706C65B8
:102174007465642077697468200A25346420657264
:10218400726F727320696E2077726974652070684B
:1021940061736520616E64200A253464206572725F
:1021A4006F727320696E2072657472696576616CF2
:1021B4002070686173650A0A00783A2025640979F9
:1021C4003A2025640A00312E20456E746572204D34
:1021D40061696E204D656E7500322E2045786974F4
:1021E40000312E20506C61792047616D6500322EDC
:1021F400204869676873636F72657300332E2053D8
:10220400657474696E677300312E2043616C696272
:1022140072617465204A6F79737469636B00322E3E
:1022240020536574206272696768746E6573730005
:102234002057656C636F6D6520746F2074686973D3
:102244002073657373696F6E200020506C65617331
:102254006520776169742E0020506C656173652078
:10226400776169742E2E0020506C65617365207748
:102274006169742E2E2E0055736520746865204A9A
:102284006F79737469636B00746F206E617669672C
:10229400617465207468726F75676820746865205E
:1022A4006D656E7500706F7320256409006E6F6430
:1022B400652069732061742025730A007370656555
:0822C400643A2025640A0000C1
:00000001FF
