:100000000C9460030C947D030C947D030C947D038D
:100010000C947D030C947D030C947D030C947D0360
:100020000C947D030C947D030C947D030C947D0350
:100030000C947D030C947D030C947D030C947D0340
:100040000C947D030C947D030C947D030C947D0330
:100050000C947D030C947D030C947D030C947D0320
:100060000C947D030C947D030C947D030C947D0310
:1000700000000000005C00000C000C007C287C28C4
:1000800058DC68002410480028542840000C000068
:10009000007884008478000054385400107C1000EC
:1000A00080400000101010000040000060100C00A4
:1000B00038543800487C40004864580044542C00B0
:1000C0001C107C005C5424003854240064140C0080
:1000D00068542C0048543800004800008048000054
:1000E0001028440028282800442810000454080040
:1000F00038445C00781478007C5428003844280088
:100100007C4438007C5444007C140400384474005F
:100110007C107C00447C440020403C007C106C003F
:100120007C4040007C187C0078103C00384438004B
:100130007C1408003844B8007C146800485424003B
:10014000047C04007C407C003C603C007C307C00F3
:100150006C106C000C700C0064544C00007C44006B
:100160000C106000447C00000804080080808000BF
:1001700000040800304878007C48300030484800CF
:1001800030487C00306850001078140090A8780047
:100190007C08700050744000808074007C106800FF
:1001A000447C4000781078007808700030483000B7
:1001B000F82810003048F80078100800505828003F
:1001C000083C4800384078003840380078207800F3
:1001D0004830480098A0780048685800107884009B
:1001E000007C00008478100008040804000000006F
:1001F0000000005F00000007000700147F147F1458
:10020000242A7F2A1223130864623649552250009B
:1002100005030000001C2241000041221C00082AA6
:100220001C2A0808083E080800503000000808088A
:100230000808006060000020100804023E51494593
:100240003E00427F400042615149462141454B31C9
:100250001814127F1027454545393C4A4949300159
:10026000710905033649494936064949291E0036B0
:100270003600000056360000000814224114141401
:10028000141441221408000201510906324979412F
:100290003E7E1111117E7F494949363E414141223E
:1002A0007F4141221C7F494949417F090901013EA3
:1002B000414151327F0808087F00417F41002040C2
:1002C000413F017F081422417F404040407F0204AB
:1002D000027F7F0408107F3E4141413E7F090909AA
:1002E000063E4151215E7F09192946464949493157
:1002F00001017F01013F4040403F1F2040201F7F00
:100300002018207F631408146303047804036151E8
:1003100049454300007F4141020408102041417FCC
:100320000000040201020440404040400001020479
:100330000020545454787F4844443838444444207E
:10034000384444487F3854545418087E0901020840
:100350001454543C7F0804047800447D400020403D
:10036000443D00007F10284400417F40007C041879
:1003700004787C0804047838444444387C14141409
:1003800008081414187C7C080404084854545420A9
:10039000043F4440203C4040207C1C2040201C3C2A
:1003A0004030403C44281028440C5050503C446499
:1003B000544C44000836410000007F0000004136E4
:1003C000080002010302010000000000000000001C
:1003D000065F5F0600000000070700070700001423
:1003E0007F7F147F7F1400242E6B6B3A120000462F
:1003F0006630180C666200307A4F5D377A48000428
:1004000007030000000000001C3E634100000000E4
:1004100041633E1C000000082A3E1C1C3E2A0808BE
:10042000083E3E0808000000A0E060000000000850
:100430000808080808000000006060000000006074
:1004400030180C060301003E7F594D7F3E000042EC
:10045000427F7F40400000627359496F660000226E
:100460006349497F360000181C16137F7F10002750
:100470006745457D3900003C7E4B497930000003DB
:100480006371190F070000367F49497F3600000667
:100490004F49693F1E000000006C6C000000000026
:1004A000A0EC6C00000000081C3663410000001442
:1004B00014141414140000004163361C08000002D8
:1004C0000351590F0600003E7F415D5D1F1E007CF9
:1004D0007E13137E7C0000417F7F49497F36001CDC
:1004E0003E634141632200417F7F41637F1C0041A5
:1004F0007F7F495D416300417F7F491D0103001CEF
:100500003E6341517372007F7F08087F7F000000C7
:10051000417F7F41000000307040417F3F0100413A
:100520007F7F081C776300417F7F41406070007FC0
:100530007F060C067F7F007F7F060C187F7F001CE4
:100540003E6341633E1C00417F7F49090F06001E48
:100550003F21717F5E0000417F7F19396F46002681
:10056000674D597B32000003417F7F410300007FCC
:100570007F40407F7F00001F3F60603F1F00007F83
:100580007F3018307F7F0063771C081C776300077B
:100590004F78784F0700006773594D47637100002B
:1005A0007F7F41410000000103060C18306000000D
:1005B00041417F7F000000080C0603060C08008004
:1005C000808080808080800000030704000000207D
:1005D0007454543C784000413F7F44447C38003898
:1005E0007C44446C280000307848493F7F40003804
:1005F0007C54545C180000487E7F49030200009838
:10060000BCA4A4F87C0400417F7F08047C7800002F
:10061000447D7D4000000040C484FD7D0000004119
:100620007F7F10386C440000417F7F400000007CD9
:100630007C0C180C7C78007C7C04047C78000038EE
:100640007C44447C38000084FCF8A4243C18001846
:100650003C24A4F8FC8400447C78441C1800004826
:100660005C54547424000000043E7F442400003C89
:100670007C40403C7C40001C3C60603C1C00003CDA
:100680007C6030607C3C00446C3810386C44009CCA
:10069000BCA0A0FC7C00004C64745C4C64000008AE
:1006A000083E7741410000000000777700000041DC
:1006B00041773E0808000002030103020301000025
:1006C00011241FBECFEFD4E0DEBFCDBF11E0A0E00C
:1006D000B1E0EAE3F6E102C005900D92A03DB1075A
:1006E000D9F721E0A0EDB1E001C01D92A83EB2070C
:1006F000E1F70E947F030C941B0B0C940000CF9336
:10070000DF9300D000D000D0CDB7DEB78FE190E00E
:100710000E9495030E94BF030E94C2040E947007BA
:10072000CE0101960E94DF03FBCF90BD89B98EE810
:1007300080BD1BB888E18AB969EB73E087EA93E072
:100740000E94AD0A08955D9BFECF8CB90895CF93AA
:10075000C82F8A3019F48DE00E94A3038C2F0E94C9
:10076000A30380E090E0CF9108955F9BFECF8CB112
:1007700008950E94B503082E000C990B089585B7C3
:10078000806885BF80B7806280BF08958093001025
:100790000895809300120895FC01F85E6083089527
:1007A000FC01F85E80810895E0E0F4E180838CEC48
:1007B00094E00197F1F700C00000808108950F9345
:1007C0001F93CF93DF93EC0185E090E00E94D40368
:1007D000082F84E090E00E94D403182F602F70E06F
:1007E00080E090E00E94850820E030E04FE753E48D
:1007F0000E94E40720E030E048EC52E40E94130934
:100800000E9456086883612F70E080E090E00E94AB
:10081000850820E030E04FE753E40E94E40720E041
:1008200030E048EC52E40E9413090E9456086983A4
:100830000F3528F084E090E09B838A8302C01B82FE
:100840001A82073820F081E090E09B838A831F356D
:1008500028F084E090E09D838C8304C083E090E0E6
:100860009D838C83173820F082E090E09D838C83F9
:10087000DF91CF911F910F9108950F931F93CF9305
:10088000DF938C0186E090E00E94D403D82F87E0AC
:1008900090E00E94D403C82F6D2F70E080E090E0BC
:1008A0000E94850820E030E04FE753E40E94E4070F
:1008B00020E030E048EC52E40E9413090E94560800
:1008C000F80160836C2F70E080E090E00E94850862
:1008D00020E030E04FE753E40E94E40720E030E0FE
:1008E00048EC52E40E9413090E945608F801618303
:1008F000DF91CF911F910F9108950E94C903089530
:100900000E94C6030895806B0E94C6030895CF938A
:10091000C82F8F700E94C6038C2F82958F708061C4
:100920000E94C603CF910895CF93C82F862F0E94AF
:1009300087048C2F0E948304CF91089580E00E9449
:10094000870480E00E9483040895CF93DF930E9480
:10095000830480E00E948704C0E8D0E080E00E9429
:10096000C9032197D9F7DF91CF910895CF93C0E0C4
:100970008C2F0E94A504CF5FC830D1F70E949E043F
:10098000CF9108958EEA0E94C60381EA0E94C603B1
:100990008AED0E94C60382E10E94C60388EC0E9491
:1009A000C60388EA0E94C6038FE30E94C60385ED52
:1009B0000E94C60380E80E94C60381E80E94C60325
:1009C00080E50E94C60389ED0E94C60381E20E9471
:1009D000C60380E20E94C60382E00E94C6038BED3C
:1009E0000E94C60380E30E94C6038DEA0E94C603EC
:1009F00080E00E94C60384EA0E94C60386EA0E9441
:100A0000C6038FEA0E94C6030E94B6040E949E0499
:100A10000895CF93C82F81E80E94C6038C2F0E94AF
:100A2000C603CF91089585EA0E94C603089584EA1B
:100A30000E94C60308958EEA0E94C60308958FEAB5
:100A40000E94C6030895CF93C82F80E20E94C60378
:100A50008C2F0E94C603CF9108950F931F93CF93BD
:100A6000DF9324E08202C0011124C0E0D0E08C01B9
:100A700000581109F801EC0FFD1FE059FF4F849158
:100A80000E94C9032196C430D105A1F7DF91CF910F
:100A90001F910F910895CF93DF93EC0188818823F4
:100AA00031F021960E942D0589918111FBCFDF91B4
:100AB000CF9108951F93CF93DF930E94B60460E017
:100AC00080E00E949404E091D601F091D701C481A6
:100AD000D581E091DC01F091DD01808191810E945E
:100AE0004B058E819F81C817D90791F010E060E017
:100AF000812F0E949404888199810E944B0508846B
:100B0000D985C02D1F5F8E819F818C179D0779F736
:100B1000DF91CF911F9108951F93CF93DF930E9490
:100B2000B60460E080E00E949404E091DC01F09162
:100B3000DD01C481D5818E819F81C817D90791F0CD
:100B400010E060E0812F0E949404888199810E94C6
:100B50004B050884D985C02D1F5F8E819F818C171E
:100B60009D0779F7DF91CF911F9108950E9494041A
:100B700088E10E947D0488E10E947D048EE70E9446
:100B80007D048CE30E947D0488E10E947D04089529
:100B90008F929F92AF92BF92CF92DF92EF92FF928D
:100BA0000F931F93CF93DF938EE090E00E94800914
:100BB0007C019093DD018093DC018EE090E00E9447
:100BC00080094C019093DB018093DA018EE090E084
:100BD0000E9480095C019093D9018093D8018EE036
:100BE00090E00E948009EC019093D7018093D60198
:100BF0008EE090E00E9480098C019093D301809355
:100C0000D2018EE090E00E9480096C019093D501A2
:100C10008093D4018EE090E00E9480099093D101EE
:100C20008093D00186E091E0F70191838083138265
:100C30001282958284828CE895E0958784878BE088
:100C400091E0F40191838083F382E2821582148221
:100C50001586148688E191E0F50191838083F38203
:100C6000E282158214821586148686E291E09983C9
:100C70008883FB82EA82DD82CC828AE595E09D87CB
:100C80008C8782E391E0F60191838083D383C283D2
:100C9000158214821586148688E491E0F801918308
:100CA0008083D383C2831582148215861486F4014F
:100CB000B186A08613861286F501D187C0879386F8
:100CC000828619861886BB86AA86F6011187008758
:100CD00013861286F80111861086D386C286F70124
:100CE000D783C6831F830E83DF91CF911F910F910E
:100CF000FF90EF90DF90CF90BF90AF909F908F903C
:100D000008954F925F926F927F928F929F92AF92CF
:100D1000BF92CF92DF92EF92FF920F931F93CF93E8
:100D2000DF93CDB7DEB7CB57D1090FB6F894DEBF4E
:100D30000FBECDBF60E083E00E94940400E010E0AD
:100D40000F2EFAE14F2EF02D5E0128E6A20EB11C07
:100D50000F2EFEE05F2EF02D6E0189E5C80ED11C2E
:100D60000F2EFFE06F2EF02D7E0199E4E90EF11CAD
:100D70006894772474F80F2EF3E08F2E912CF02DC9
:100D8000EAE5F1E0DE019F96842D01900D928A95AF
:100D9000E1F7E4E7F1E0D501852D01900D928A9508
:100DA000E1F7E2E8F1E0D601862D01900D928A95F7
:100DB000E1F7E1E9F1E0D701872D01900D928A95E5
:100DC000E1F7E896BFAEAEAEE897EA96DFAECEAEFC
:100DD000EA97EC96FFAEEEAEEC9783E00E948304B8
:100DE000CE018F960E944B0560E084E00E9494043F
:100DF000C801B4010E94BC07FC01EE0FFF1F86E78B
:100E000090E08C0F9D1FE80FF91F808191810E9457
:100E10004B059FEF2FEF8EE0915020408040E1F78F
:100E200000C0000084E00E94A5040F5F1F4F063041
:100E3000110509F0A5CF0E94B60460E083E00E948E
:100E4000940481E1E1EAF1E0DE01119601900D9256
:100E50008A95E1F78DE1E2EBF1E0DE015296019037
:100E60000D928A95E1F7CE0101960E944B0560E054
:100E700084E00E949404CE0142960E944B059FEFAD
:100E80002FEF8CE2915020408040E1F700C000C07D
:100E90000E94B604C558DF4F0FB6F894DEBF0FBEF0
:100EA000CDBFDF91CF911F910F91FF90EF90DF9019
:100EB000CF90BF90AF909F908F907F906F905F90FA
:100EC0004F9008950F931F93FC01718360835383A8
:100ED000428335832483158704871F910F910895DA
:100EE000CF93DF9300D0CDB7DEB70E94C80581E075
:100EF00090E09A8389830E948C052FEF8FEF9CE20C
:100F0000215080409040E1F700C000C00E945A0587
:100F10000F900F90DF91CF9108950F931F93CF9370
:100F2000DF93EC018B01CB010E94DF03F801848188
:100F300095818230910531F4888199810196998358
:100F4000888307C0039729F4888199810197998341
:100F500088832881398123703078332334F42150F9
:100F600031092C6F3F6F2F5F3F4F39832883DF910B
:100F7000CF911F910F91089597FB072E16F40094BF
:100F800007D077FD09D00E94D00707FC05D03EF4BA
:100F9000909581959F4F0895709561957F4F089525
:100FA000AA1BBB1B51E107C0AA1FBB1FA617B7078F
:100FB00010F0A61BB70B881F991F5A95A9F78095AB
:100FC0009095BC01CD0108950E94F8070C94D908B2
:100FD0000E94D20858F00E94CB0840F029F45F3FED
:100FE00029F00C94C20851110C940D090C94C808F6
:100FF0000E94EA0868F39923B1F3552391F3951BF6
:10100000550BBB27AA2762177307840738F09F5F29
:101010005F4F220F331F441FAA1FA9F335D00E2E96
:101020003AF0E0E832D091505040E695001CCAF703
:101030002BD0FE2F29D0660F771F881FBB1F2617C6
:1010400037074807AB07B0E809F0BB0B802DBF019D
:10105000FF2793585F4F3AF09E3F510578F00C946C
:10106000C2080C940D095F3FE4F3983ED4F38695D3
:1010700077956795B795F7959F5FC9F7880F911D8D
:101080009695879597F90895E1E0660F771F881F79
:10109000BB1F621773078407BA0720F0621B730B2C
:1010A000840BBA0BEE1F88F7E09508950E94F208B2
:1010B00088F09F5798F0B92F9927B751B0F0E1F019
:1010C000660F771F881F991F1AF0BA95C9F714C0C9
:1010D000B13091F00E940C09B1E008950C940C0914
:1010E000672F782F8827B85F39F0B93FCCF3869502
:1010F00077956795B395D9F73EF49095809570955F
:1011000061957F4F8F4F9F4F0895E89409C097FBDB
:101110003EF490958095709561957F4F8F4F9F4FCE
:101120009923A9F0F92F96E9BB279395F695879512
:1011300077956795B795F111F8CFFAF4BB0F11F4D5
:1011400060FF1BC06F5F7F4F8F4F9F4F16C088237C
:1011500011F096E911C0772321F09EE8872F762FB2
:1011600005C0662371F096E8862F70E060E02AF0F3
:101170009A95660F771F881FDAF7880F96958795DF
:1011800097F9089597F99F6780E870E060E0089507
:101190009FEF80EC089500240A941616170618068F
:1011A0000906089500240A9412161306140605066B
:1011B0000895092E0394000C11F4882352F0BB0FFC
:1011C00040F4BF2B11F460FF04C06F5F7F4F8F4F5F
:1011D0009F4F089557FD9058440F551F59F05F3F9A
:1011E00071F04795880F97FB991F61F09F3F79F049
:1011F00087950895121613061406551FF2CF4695CB
:10120000F1DF08C0161617061806991FF1CF86954C
:101210007105610508940895E894BB276627772730
:10122000CB0197F908950E9426090C94D9080E94D1
:10123000CB0838F00E94D20820F0952311F00C94CE
:10124000C2080C94C80811240C940D090E94EA08E5
:1012500070F3959FC1F3950F50E0551F629FF00109
:10126000729FBB27F00DB11D639FAA27F00DB11D22
:10127000AA1F649F6627B00DA11D661F829F2227AB
:10128000B00DA11D621F739FB00DA11D621F839F32
:10129000A00D611D221F749F3327A00D611D231F08
:1012A000849F600D211D822F762F6A2F11249F5756
:1012B00050409AF0F1F088234AF0EE0FFF1FBB1F59
:1012C000661F771F881F91505040A9F79E3F510518
:1012D00080F00C94C2080C940D095F3FE4F3983E33
:1012E000D4F3869577956795B795F795E7959F5FC2
:1012F000C1F7FE2B880F911D9695879597F9089554
:10130000CF93DF938230910510F482E090E0E0917A
:10131000E001F091E10120E030E0C0E0D0E0309762
:1013200011F14081518148175907C0F048175907FA
:1013300061F482819381209719F09B838A832BC06B
:101340009093E1018093E00126C02115310519F049
:101350004217530718F49A01BE01DF01EF01028022
:10136000F381E02DDCCF2115310509F1281B390B64
:101370002430310590F412968D919C91139761154C
:10138000710521F0FB019383828304C09093E101F6
:101390008093E001FD01329644C0FD01E20FF31F8E
:1013A00081939193225031092D933C933AC020911F
:1013B000DE013091DF01232B41F4209102013091B5
:1013C00003013093DF012093DE0120910001309171
:1013D00001012115310541F42DB73EB740910401BB
:1013E00050910501241B350BE091DE01F091DF01E6
:1013F000E217F307A0F42E1B3F0B2817390778F0EC
:10140000AC014E5F5F4F2417350748F04E0F5F1F4A
:101410005093DF014093DE018193919302C0E0E09D
:10142000F0E0CF01DF91CF9108950F931F93CF93F9
:10143000DF93009709F48CC0FC013297138212826B
:101440000091E0011091E1010115110581F4208165
:101450003181820F931F2091DE013091DF01281727
:10146000390779F5F093DF01E093DE0171C0D8010F
:1014700040E050E0AE17BF0750F412962D913C911A
:101480001397AD012115310509F1D901F3CF9D0164
:10149000DA013383228360817181860F971F82175F
:1014A000930769F4EC0128813981260F371F2E5FDD
:1014B0003F4F318320838A819B8193838283452B95
:1014C00029F4F093E101E093E00142C01396FC930C
:1014D000EE931297ED01499159919E01240F351F0A
:1014E000E217F30771F480819181840F951F0296B2
:1014F00011969C938E938281938113969C938E93E5
:101500001297E0E0F0E0D80112968D919C9113972C
:10151000009719F0F8018C01F6CF8D919C919801FC
:101520002E5F3F4F820F931F2091DE013091DF012C
:101530002817390769F4309729F41092E1011092C5
:10154000E00102C0138212821093DF010093DE01DA
:10155000DF91CF911F910F9108950F931F93CF9318
:10156000DF93009731F46115710519F480E090E084
:101570003AC08B01EC016EE070E081E090E00E94E7
:10158000F80AFC01892B91F380E88383011511058A
:1015900071F01387028781E883838091E201909143
:1015A000E301892B21F4F093E301E093E20120971A
:1015B000C9F0D187C0878381826083838091E401F1
:1015C0009091E501892B71F4F093E501E093E4013A
:1015D0008091E6019091E701892B21F4F093E701D6
:1015E000E093E601CF01DF91CF911F910F91089514
:1015F0000F931F93CF93DF93869F8001879F100DDA
:10160000969F100D1124C8010E948009EC010097DB
:1016100029F0A80160E070E00E94140BCE01DF9178
:10162000CF911F910F910895DC0101C06D9341503E
:0A1630005040E0F70895F894FFCF52
:10163A000000E8012000486F6D6500312E20506CD3
:10164A0061792047616D6500322E204869676873A9
:10165A00636F72657300332E2053657474696E6705
:10166A007300312E2043616C696272617465204A8D
:10167A006F79737469636B00322E2053657420622C
:10168A0072696768746E657373002057656C636F5F
:10169A006D6520746F20746869732073657373694C
:1016AA006F6E200020506C656173652077616974E4
:1016BA002E0020506C6561736520776169742E2E47
:1016CA000020506C6561736520776169742E2E2E37
:1016DA000055736520746865204A6F79737469636D
:1016EA006B00746F206E6176696761746520746837
:1016FA00726F75676820746865206D656E75000085
:00000001FF
