:100000000C9438000C9455000C9455000C94550039
:100010000C9455000C9455000C9455000C9455000C
:100020000C9455000C9455000C9455000C945500FC
:100030000C9455000C9455000C9455000C945500EC
:100040000C9455000C9455000C9455000C945500DC
:100050000C9455000C9455000C9455000C945500CC
:100060000C9455000C9455000C9455000C945500BC
:1000700011241FBECFEFD4E0DEBFCDBF11E0A0E062
:10008000B1E0EAE0FEE002C005900D92A83FB107A2
:10009000D9F722E0A8EFB1E001C01D92A230B2076B
:1000A000E1F70E94DA000C9403070C940000CF9251
:1000B000DF92EF92FF920F931F93CF93DF938AE02B
:1000C00091E00E946B020E94FA017C010E94FF01F4
:1000D000C12CD12CC0E0D0E000E211E00E94FA0176
:1000E000F601F85E808320812817A1F099279F935D
:1000F0008F931F922F93DF92CF921F930F930E94A3
:10010000550221968DB79EB708960FB6F8949EBFFC
:100110000FBE8DBF9FEFC91AD90AC11488E0D80657
:10012000E9F6C7010E94FF0100E010E0E12CF12C8C
:100130000F2EF9E5CF2EF1E0DF2EF02D0E94FA010F
:10014000F801F85E20812817B1F099279F938F93CB
:100150001F922F931F930F93DF92CF920E9455020D
:100160009FEFE91AF90A8DB79EB708960FB6F89473
:100170009EBF0FBE8DBF0F5F1F4F011598E019077F
:10018000E9F6FF92EF92DF93CF9386E991E09F9398
:100190008F930E9455020F900F900F900F900F9029
:1001A0000F90DF91CF911F910F91FF90EF90DF9013
:1001B000CF900895CF93DF9300D000D0CDB7DEB7B6
:1001C0008FE190E00E9402010E942C010FEE11E0ED
:1001D000BE016D5F7F4FCE0101960E944C018C8164
:1001E0008F938B818F938A818F9389818F931F93B4
:1001F0000F930E9455020F900F900F900F900F9049
:100200000F90E6CF90BD89B98EE880BD1BB888E11C
:100210008AB966E271E084E191E00E940A020895E1
:100220005D9BFECF8CB90895CF93C82F8A3019F407
:100230008DE00E9410018C2F0E94100180E090E060
:10024000CF9108955F9BFECF8CB108950E9422014B
:10025000082E000C990B089585B7806885BF80B77C
:10026000806280BF089580930010089580930012EB
:100270000895FC01F85E60830895FC01F85E8081BA
:100280000895E0E0F4E180838CEC94E00197F1F7CD
:1002900000C0000080810895EF92FF920F931F939A
:1002A000CF937C018B0184E090E00E944101C82F34
:1002B00085E090E00E944101CE3630F024E030E04D
:1002C000F7013183208303C0F70111821082CC37FC
:1002D00028F021E030E0F701318320838E3630F0C2
:1002E00024E030E0F8013183208305C023E030E0D2
:1002F000F801318320838C3728F082E090E0F80108
:1003000091838083CF911F910F91FF90EF9008957B
:100310000F931F93CF938C0184E090E00E944101E2
:10032000C82F85E090E00E9441019DECC99FC12D3E
:100330001124C695C69534E6C39FC02D1124F8013B
:10034000C083899F912D112496959695939F902D0A
:1003500011249183CF911F910F9108958F929F92B5
:10036000AF92BF92CF92DF92EF92FF92CF93DF9343
:10037000EC01688179818A819B8161157105810514
:10038000910521F464E279ED8BE597E02DE133EFFF
:1003900041E050E00E94690649015A019B01AC010D
:1003A000A7EAB1E40E9488066B017C01ACEEB4EFD1
:1003B000A50194010E949606DC01CB018C0D9D1DC8
:1003C000AE1DBF1DB7FF03C00197A109B0488883C8
:1003D0009983AA83BB839F77DF91CF91FF90EF90A2
:1003E000DF90CF90BF90AF909F908F9008950E9424
:1003F000AE01089580E091E00E94AE010895A0E072
:10040000B0E08093000190930101A0930201B093AA
:10041000030108950F931F93CF93DF93009731F457
:100420006115710519F480E090E03AC08B01EC0190
:100430006EE070E081E090E00E946D04FC01892B89
:1004400091F380E883830115110571F0138702870A
:1004500081E883838091F8019091F901892B21F43F
:10046000F093F901E093F8012097C9F0D187C08794
:100470008381826083838091FA019091FB01892BB3
:1004800071F4F093FB01E093FA018091FC019091EB
:10049000FD01892B21F4F093FD01E093FC01CF01D4
:1004A000DF91CF911F910F910895A0E0B0E0EBE5AF
:1004B000F2E00C94AB06AE014B5F5F4FFA01619125
:1004C0007191AF018091FA019091FB010E949B0212
:1004D000E2E00C94C7060F931F93CF93DF93E09154
:1004E000FA01F091FB01238121FF1BC08C01D0E0B8
:1004F000C0E0F80181918F016091FA017091FB01D8
:10050000DB011896ED91FC911997882331F009953C
:10051000892B79F3DFEFCFEFECCF8AE00995892BB8
:1005200019F08FEF9FEF02C08D2F9C2FDF91CF919D
:100530001F910F910895ACE0B0E0E1EAF2E00C9475
:100540009B067C016B018A01FC0117821682838164
:1005500081FFBDC1CE0101964C01F7019381F601E7
:1005600093FD859193FF81916F01882309F4ABC1BD
:10057000853239F493FD859193FF81916F01853226
:1005800029F4B70190E00E94D305E7CF512C312C1C
:1005900020E02032A0F48B3269F030F4803259F040
:1005A000833269F420612CC08D3239F0803339F404
:1005B000216026C02260246023C0286021C027FD5E
:1005C00027C030ED380F3A3078F426FF06C0FAE045
:1005D0005F9E300D1124532E13C08AE0389E300DDB
:1005E0001124332E20620CC08E3221F426FD6BC103
:1005F000206406C08C3611F4206802C0883641F4AD
:10060000F60193FD859193FF81916F018111C1CF17
:10061000982F9F7D9554933028F40C5F1F4FFFE374
:10062000F9830DC0833631F0833771F0833509F0DB
:100630005BC022C0F801808189830E5F1F4F442474
:100640004394512C540115C03801F2E06F0E711C17
:10065000F801A080B18026FF03C0652D70E002C0C4
:100660006FEF7FEFC5012C870E94C8052C01830125
:100670002C852F77222E17C03801F2E06F0E711CE7
:10068000F801A080B18026FF03C0652D70E002C094
:100690006FEF7FEFC5012C870E94B6052C012C85DA
:1006A0002068222E830123FC1BC0832D90E0481676
:1006B0005906B0F4B70180E290E00E94D3053A9465
:1006C000F4CFF50127FC859127FE81915F01B701E9
:1006D00090E00E94D30531103A94F1E04F1A51088E
:1006E0004114510471F7E5C0843611F0893639F5AB
:1006F000F80127FF07C060817181828193810C5FBF
:100700001F4F08C060817181072E000C880B990B68
:100710000E5F1F4F2F76722E97FF09C09095809520
:10072000709561957F4F8F4F9F4F2068722E2AE002
:1007300030E0A4010E940B06A82EA81844C08537FB
:1007400029F42F7EB22E2AE030E025C0F22FF97F67
:10075000BF2E8F36C1F018F4883579F0B4C08037D9
:1007600019F0883721F0AFC02F2F2061B22EB4FED0
:100770000DC08B2D8460B82E09C024FF0AC09F2FA6
:100780009660B92E06C028E030E005C020E130E0D8
:1007900002C020E132E0F801B7FE07C0608171813C
:1007A000828193810C5F1F4F06C06081718180E060
:1007B00090E00E5F1F4FA4010E940B06A82EA81800
:1007C000FB2DFF777F2E76FE0BC0372D3E7FA514C5
:1007D00050F474FE0AC072FC08C0372D3E7E05C07E
:1007E000BA2C372D03C0BA2C01C0B52C34FF0DC074
:1007F000FE01EA0DF11D8081803311F4397E09C0BC
:1008000032FF06C0B394B39404C0832F867809F0F6
:10081000B39433FD13C030FF06C05A2CB31418F440
:10082000530C5B18B32CB31468F4B70180E290E06A
:100830003C870E94D305B3943C85F5CFB31410F4E4
:100840003B1801C0312C34FF12C0B70180E390E0A7
:100850003C870E94D3053C8532FF17C031FD03C0A1
:1008600088E790E002C088E590E0B7010CC0832FD4
:10087000867859F031FF02C08BE201C080E237FD7B
:100880008DE2B70190E00E94D305A51438F4B701BA
:1008900080E390E00E94D3055A94F7CFAA94F40124
:1008A000EA0DF11D8081B70190E00E94D305A110EF
:1008B000F5CF332009F451CEB70180E290E00E94D9
:1008C000D3053A94F6CFF7018681978102C08FEF66
:1008D0009FEF2C96E2E10C94B7060F931F93CF93F2
:1008E000DF93869F8001879F100D969F100D112426
:1008F000C8010E948904EC01009729F0A80160E07A
:1009000070E00E94C105CE01DF91CF911F910F9140
:100910000895CF93DF938230910510F482E090E048
:10092000E0910002F091010220E030E0C0E0D0E070
:10093000309711F14081518148175907C0F048178D
:10094000590761F482819381209719F09B838A83F0
:100950002BC0909301028093000226C0211531051F
:1009600019F04217530718F49A01BE01DF01EF0195
:100970000280F381E02DDCCF2115310509F1281B20
:10098000390B2430310590F412968D919C91139778
:100990006115710521F0FB019383828304C090935C
:1009A000010280930002FD01329644C0FD01E20F76
:1009B000F31F81939193225031092D933C933AC0B8
:1009C0002091FE013091FF01232B41F4209106017B
:1009D000309107013093FF012093FE012091040123
:1009E000309105012115310541F42DB73EB74091F5
:1009F000080150910901241B350BE091FE01F09193
:100A0000FF01E217F307A0F42E1B3F0B281739074D
:100A100078F0AC014E5F5F4F2417350748F04E0F5A
:100A20005F1F5093FF014093FE018193919302C099
:100A3000E0E0F0E0CF01DF91CF9108950F931F9395
:100A4000CF93DF93009709F48CC0FC013297138297
:100A5000128200910002109101020115110581F42A
:100A600020813181820F931F2091FE013091FF017F
:100A70002817390779F5F093FF01E093FE0171C063
:100A8000D80140E050E0AE17BF0750F412962D9108
:100A90003C911397AD012115310509F1D901F3CF2F
:100AA0009D01DA013383228360817181860F971F54
:100AB0008217930769F4EC0128813981260F371FCB
:100AC0002E5F3F4F318320838A819B819383828372
:100AD000452B29F4F0930102E093000242C01396E3
:100AE000FC93EE931297ED01499159919E01240FC9
:100AF000351FE217F30771F480819181840F951FF0
:100B0000029611969C938E938281938113969C9367
:100B10008E931297E0E0F0E0D80112968D919C91AF
:100B20001397009719F0F8018C01F6CF8D919C91E5
:100B300098012E5F3F4F820F931F2091FE0130914D
:100B4000FF012817390769F4309729F41092010240
:100B50001092000202C0138212821093FF010093D0
:100B6000FE01DF91CF911F910F910895FC01059037
:100B7000615070400110D8F7809590958E0F9F1F9F
:100B80000895DC0101C06D9341505040E0F7089595
:100B9000FC016150704001900110D8F7809590954C
:100BA0008E0F9F1F08950F931F93CF93DF93FB0129
:100BB000238121FD03C08FEF9FEF28C022FF16C0C5
:100BC00046815781248135814217530744F4A0811F
:100BD000B1819D012F5F3F4F318320838C9326810C
:100BE00037812F5F3F4F3783268310C0EB01092FDA
:100BF000182F0084F185E02D0995892BE1F68E816F
:100C00009F8101969F838E83812F902FDF91CF91BB
:100C10001F910F910895FA01AA27283051F1203130
:100C200081F1E8946F936E7F6E5F7F4F8F4F9F4F80
:100C3000AF4FB1E03ED0B4E03CD0670F781F891FC2
:100C40009A1FA11D680F791F8A1F911DA11D6A0F90
:100C5000711D811D911DA11D20D009F468943F9143
:100C60002AE0269F11243019305D3193DEF6CF0142
:100C70000895462F4770405D4193B3E00FD0C9F708
:100C8000F6CF462F4F70405D4A3318F0495D31FD75
:100C90004052419302D0A9F7EACFB4E0A6959795C8
:100CA000879577956795BA95C9F70097610571059E
:100CB00008959B01AC010A2E0694579547953795E8
:100CC0002795BA95C9F7620F731F841F951FA01D42
:100CD0000895052E97FB1EF400940E94800657FD90
:100CE00007D00E94D20607FC03D04EF40C94800675
:100CF00050954095309521953F4F4F4F5F4F089548
:100D000090958095709561957F4F8F4F9F4F089577
:100D10000E94F406A59F900DB49F900DA49F800D96
:100D2000911D11240895B7FF0C9488060E9488062F
:100D3000821B930B08952F923F924F925F926F9276
:100D40007F928F929F92AF92BF92CF92DF92EF925B
:100D5000FF920F931F93CF93DF93CDB7DEB7CA1BDC
:100D6000DB0B0FB6F894DEBF0FBECDBF09942A8807
:100D7000398848885F846E847D848C849B84AA84AF
:100D8000B984C884DF80EE80FD800C811B81AA813C
:100D9000B981CE0FD11D0FB6F894DEBF0FBECDBF07
:100DA000ED010895A1E21A2EAA1BBB1BFD010DC087
:100DB000AA1FBB1FEE1FFF1FA217B307E407F5070B
:100DC00020F0A21BB30BE40BF50B661F771F881FE7
:100DD000991F1A9469F760957095809590959B017D
:100DE000AC01BD01CF010895A29FB001B39FC00126
:100DF000A39F700D811D1124911DB29F700D811D47
:0A0E00001124911D0895F894FFCF0E
:100E0A00010000000000020220005374617274693C
:100E1A006E67205352414D20746573742E2E2E0036
:100E2A005772697465207068617365206572726FA4
:100E3A00723A206578745F72616D5B2534645D2057
:100E4A003D2025303258202873686F756C64206203
:100E5A00652025303258290A005265747269657610
:100E6A00616C207068617365206572726F723A20D6
:100E7A006578745F72616D5B2534645D203D202561
:100E8A00303258202873686F756C6420626520259B
:100E9A00303258290A005352414D20746573742028
:100EAA00636F6D706C657465642077697468200A75
:100EBA00253464206572726F727320696E207772AE
:100ECA0069746520706861736520616E64200A2503
:100EDA003464206572726F727320696E2072657451
:100EEA0072696576616C2070686173650A0A00250B
:080EFA006420202025640A0099
:00000001FF
