:100000000C9460030C947D030C947D030C947D038D
:100010000C947D030C947D030C947D030C947D0360
:100020000C947D030C947D030C947D030C947D0350
:100030000C947D030C947D030C947D030C947D0340
:100040000C947D030C947D030C947D030C947D0330
:100050000C947D030C947D030C947D030C947D0320
:100060000C947D030C947D030C947D030C947D0310
:1000700000000000005C00000C000C007C287C28C4
:1000800058DC68002410480028542840000C000068
:10009000007884008478000054385400107C1000EC
:1000A00080400000101010000040000060100C00A4
:1000B00038543800487C40004864580044542C00B0
:1000C0001C107C005C5424003854240064140C0080
:1000D00068542C0048543800004800008048000054
:1000E0001028440028282800442810000454080040
:1000F00038445C00781478007C5428003844280088
:100100007C4438007C5444007C140400384474005F
:100110007C107C00447C440020403C007C106C003F
:100120007C4040007C187C0078103C00384438004B
:100130007C1408003844B8007C146800485424003B
:10014000047C04007C407C003C603C007C307C00F3
:100150006C106C000C700C0064544C00007C44006B
:100160000C106000447C00000804080080808000BF
:1001700000040800304878007C48300030484800CF
:1001800030487C00306850001078140090A8780047
:100190007C08700050744000808074007C106800FF
:1001A000447C4000781078007808700030483000B7
:1001B000F82810003048F80078100800505828003F
:1001C000083C4800384078003840380078207800F3
:1001D0004830480098A0780048685800107884009B
:1001E000007C00008478100008040804000000006F
:1001F0000000005F00000007000700147F147F1458
:10020000242A7F2A1223130864623649552250009B
:1002100005030000001C2241000041221C00082AA6
:100220001C2A0808083E080800503000000808088A
:100230000808006060000020100804023E51494593
:100240003E00427F400042615149462141454B31C9
:100250001814127F1027454545393C4A4949300159
:10026000710905033649494936064949291E0036B0
:100270003600000056360000000814224114141401
:10028000141441221408000201510906324979412F
:100290003E7E1111117E7F494949363E414141223E
:1002A0007F4141221C7F494949417F090901013EA3
:1002B000414151327F0808087F00417F41002040C2
:1002C000413F017F081422417F404040407F0204AB
:1002D000027F7F0408107F3E4141413E7F090909AA
:1002E000063E4151215E7F09192946464949493157
:1002F00001017F01013F4040403F1F2040201F7F00
:100300002018207F631408146303047804036151E8
:1003100049454300007F4141020408102041417FCC
:100320000000040201020440404040400001020479
:100330000020545454787F4844443838444444207E
:10034000384444487F3854545418087E0901020840
:100350001454543C7F0804047800447D400020403D
:10036000443D00007F10284400417F40007C041879
:1003700004787C0804047838444444387C14141409
:1003800008081414187C7C080404084854545420A9
:10039000043F4440203C4040207C1C2040201C3C2A
:1003A0004030403C44281028440C5050503C446499
:1003B000544C44000836410000007F0000004136E4
:1003C000080002010302010000000000000000001C
:1003D000065F5F0600000000070700070700001423
:1003E0007F7F147F7F1400242E6B6B3A120000462F
:1003F0006630180C666200307A4F5D377A48000428
:1004000007030000000000001C3E634100000000E4
:1004100041633E1C000000082A3E1C1C3E2A0808BE
:10042000083E3E0808000000A0E060000000000850
:100430000808080808000000006060000000006074
:1004400030180C060301003E7F594D7F3E000042EC
:10045000427F7F40400000627359496F660000226E
:100460006349497F360000181C16137F7F10002750
:100470006745457D3900003C7E4B497930000003DB
:100480006371190F070000367F49497F3600000667
:100490004F49693F1E000000006C6C000000000026
:1004A000A0EC6C00000000081C3663410000001442
:1004B00014141414140000004163361C08000002D8
:1004C0000351590F0600003E7F415D5D1F1E007CF9
:1004D0007E13137E7C0000417F7F49497F36001CDC
:1004E0003E634141632200417F7F41637F1C0041A5
:1004F0007F7F495D416300417F7F491D0103001CEF
:100500003E6341517372007F7F08087F7F000000C7
:10051000417F7F41000000307040417F3F0100413A
:100520007F7F081C776300417F7F41406070007FC0
:100530007F060C067F7F007F7F060C187F7F001CE4
:100540003E6341633E1C00417F7F49090F06001E48
:100550003F21717F5E0000417F7F19396F46002681
:10056000674D597B32000003417F7F410300007FCC
:100570007F40407F7F00001F3F60603F1F00007F83
:100580007F3018307F7F0063771C081C776300077B
:100590004F78784F0700006773594D47637100002B
:1005A0007F7F41410000000103060C18306000000D
:1005B00041417F7F000000080C0603060C08008004
:1005C000808080808080800000030704000000207D
:1005D0007454543C784000413F7F44447C38003898
:1005E0007C44446C280000307848493F7F40003804
:1005F0007C54545C180000487E7F49030200009838
:10060000BCA4A4F87C0400417F7F08047C7800002F
:10061000447D7D4000000040C484FD7D0000004119
:100620007F7F10386C440000417F7F400000007CD9
:100630007C0C180C7C78007C7C04047C78000038EE
:100640007C44447C38000084FCF8A4243C18001846
:100650003C24A4F8FC8400447C78441C1800004826
:100660005C54547424000000043E7F442400003C89
:100670007C40403C7C40001C3C60603C1C00003CDA
:100680007C6030607C3C00446C3810386C44009CCA
:10069000BCA0A0FC7C00004C64745C4C64000008AE
:1006A000083E7741410000000000777700000041DC
:1006B00041773E0808000002030103020301000025
:1006C00011241FBECFEFD4E0DEBFCDBF12E0A0E00B
:1006D000B1E0E0E3FEE102C005900D92A43CB10759
:1006E000D9F722E0A4ECB2E001C01D92AE3CB20703
:1006F000E1F70E9402040C94160F0C940000CF92B4
:10070000DF92EF92FF920F931F93CF93DF938AE0D4
:1007100091E00E945B0A0E94EA097C010E94EF09B5
:10072000C12CD12CC0E0D0E000E211E00E94EA0927
:10073000F601F85E808320812817A1F099279F9306
:100740008F931F922F93DF92CF921F930F930E944C
:10075000450A21968DB79EB708960FB6F8949EBFAE
:100760000FBE8DBF9FEFC91AD90AC11488E0D80601
:10077000E9F6C7010E94EF0900E010E0E12CF12C3E
:100780000F2EF9E5CF2EF1E0DF2EF02D0E94EA09C1
:10079000F801F85E20812817B1F099279F938F9375
:1007A0001F922F931F930F93DF92CF920E94450ABF
:1007B0009FEFE91AF90A8DB79EB708960FB6F8941D
:1007C0009EBF0FBE8DBF0F5F1F4F011598E0190729
:1007D000E9F6FF92EF92DF93CF9386E991E09F9342
:1007E0008F930E94450A0F900F900F900F900F90DB
:1007F0000F90DF91CF911F910F91FF90EF90DF90BD
:10080000CF9008958FE190E00E940B040E94350480
:100810000E943805FFCF90BD89B98EE880BD1BB816
:1008200088E18AB96FE274E08DE194E00E94FA09F0
:1008300008955D9BFECF8CB90895CF93C82F8A3061
:1008400019F48DE00E9419048C2F0E94190480E095
:1008500090E0CF9108955F9BFECF8CB108950E94E8
:100860002B04082E000C990B089585B7806885BF6E
:1008700080B7806280BF08958093001008958093B0
:1008800000120895FC01F85E60830895FC01F85E93
:1008900080810895E0E0F4E180838CEC94E001979E
:1008A000F1F700C00000808108950F931F93CF934C
:1008B000DF93EC0185E090E00E944A04082F84E079
:1008C00090E00E944A04182F602F70E080E090E0D2
:1008D0000E94A30820E030E04FE753E40E940208A2
:1008E00020E030E048EC52E40E9431090E94740894
:1008F0006883612F70E080E090E00E94A30820E010
:1009000030E04FE753E40E94020820E030E048EC7A
:1009100052E40E9431090E94740869830F3528F05F
:1009200084E090E09B838A8302C01B821A8207388E
:1009300020F081E090E09B838A831F3528F084E0DB
:1009400090E09D838C8304C083E090E09D838C8342
:10095000173820F082E090E09D838C83DF91CF9167
:100960001F910F9108950F931F93CF93DF938C01E5
:1009700086E090E00E944A04D82F87E090E00E9431
:100980004A04C82F6D2F70E080E090E00E94A30819
:1009900020E030E04FE753E40E94020820E030E01E
:1009A00048EC52E40E9431090E947408F801608307
:1009B0006C2F70E080E090E00E94A30820E030E01F
:1009C0004FE753E40E94020820E030E048EC52E494
:1009D0000E9431090E947408F8016183DF91CF9170
:1009E0001F910F9108950E943F0408950E943C04B6
:1009F0000895806B0E943C040895CF93C82F8F7098
:100A00000E943C048C2F82958F7080610E943C0470
:100A1000CF910895CF93C82F862F0E94FD048C2F6D
:100A20000E94F904CF91089580E00E94FD0480E0C7
:100A30000E94F9040895CF93DF930E94F90480E0A7
:100A40000E94FD04C0E8D0E080E00E943F042197AE
:100A5000D9F7DF91CF910895CF93C0E08C2F0E94FA
:100A60001B05CF5FC830D1F70E941405CF910895C0
:100A70008EEA0E943C0481EA0E943C048AED0E94B6
:100A80003C0482E10E943C0488EC0E943C0488EA19
:100A90000E943C048FE30E943C0485ED0E943C04CC
:100AA00080E80E943C0481E80E943C0480E50E94AA
:100AB0003C0489ED0E943C0481E20E943C0480E2F7
:100AC0000E943C0482E00E943C048BED0E943C04A6
:100AD00080E30E943C048DEA0E943C0480E00E9476
:100AE0003C0484EA0E943C0486EA0E943C048FEAAB
:100AF0000E943C040E942C050E9414050895CF9387
:100B0000C82F81E80E943C048C2F0E943C04CF91A6
:100B1000089585EA0E943C04089584EA0E943C04FA
:100B200008958EEA0E943C0408958FEA0E943C04D6
:100B30000895CF93C82F80E20E943C048C2F0E941E
:100B40003C04CF9108950F931F93CF93DF9324E03C
:100B50008202C0011124C0E0D0E08C0100581109CC
:100B6000F801EC0FFD1FE059FF4F84910E943F04F4
:100B70002196C430D105A1F7DF91CF911F910F913C
:100B80000895CF93DF93EC018881882331F021967B
:100B90000E94A30589918111FBCFDF91CF91089528
:100BA000CF93DF93CDB7DEB7C455D1090FB6F89414
:100BB000DEBF0FBECDBF60E080E00E940A058DE180
:100BC000EFEEF1E0DE01119601900D928A95E1F7CA
:100BD00082E1ECE0F2E0DE015E9601900D928A95F2
:100BE000E1F785E1EEE1F2E0DE01D09601900D92B1
:100BF0008A95E1F780E1E3E3F2E0DE01AB5BBF4F12
:100C000001900D928A95E1F760E080E00E940A056C
:100C1000CE0101960E94C10563E081E00E940A05B1
:100C2000CE014E960E94C10563E082E00E940A0553
:100C3000CE01C0960E94C10563E083E00E940A05D0
:100C4000CE018B5B9F4F0E94C105CC5ADF4F0FB680
:100C5000F894DEBF0FBECDBFDF91CF9108950F9303
:100C60001F93CF93DF9300D01F92CDB7DEB78C01D7
:100C70008DE29EE3A0E089839A83AB830E94D00536
:100C800060E0F80180810E940A05CE0101960E9471
:100C9000C1050F900F900F90DF91CF911F910F9191
:100CA00008950F931F93CF93DF93EC018B01CB013A
:100CB0000E945504F801848195818230910531F4B8
:100CC0008881998101969983888307C0039729F4C5
:100CD000888199810197998388832881398123703C
:100CE0003078332334F4215031092C6F3F6F2F5F5C
:100CF0003F4F39832883DF91CF911F910F91089542
:100D0000CF93DF93CDB7DEB7C358D1090FB6F894B0
:100D1000DEBF0FBECDBF60E083E00E940A0500E0A9
:100D200010E00F2EFAE16F2EF02D5E0120E7A20EEB
:100D3000B11C0F2EFEE07F2EF02D6E0181E6C80E55
:100D4000D11C0F2EFFE08F2EF02D7E0191E5E90ED4
:100D5000F11C6894992494F80F2EF3E04F2E512C37
:100D6000F02DE5E4F2E0DE01D796862D01900D929C
:100D70008A95E1F7EFE5F2E0D501872D01900D921C
:100D80008A95E1F7EDE6F2E0D601882D01900D920B
:100D90008A95E1F7ECE7F2E0D701892D01900D92F9
:100DA0008A95E1F7C258DF4FB982A882CE57D0406A
:100DB000C058DF4FD982C882C058D040CE57DF4FCD
:100DC000F982E882C258D04083E00E94F904CE0143
:100DD000C7960E94C10560E084E00E940A05C80130
:100DE000B2010E94DA07FC01EE0FFF1F8EE790E0D0
:100DF0008C0F9D1FE80FF91F808191810E94C10512
:100E00009FEF2FEF8EE0915020408040E1F700C02F
:100E1000000084E00E941B050F5F1F4F0630110584
:100E200009F09FCF0E942C0560E083E00E940A0534
:100E300081E1ECE8F2E0DE01119601900D928A95D5
:100E4000E1F78DE1EDE9F2E0DE01529601900D92BD
:100E50008A95E1F7CE0101960E94C10560E084E029
:100E60000E940A05CE0142960E94C1059FEF2FEF16
:100E70008CE2915020408040E1F700C000C00E9409
:100E80002C0581E090E098AB8FA7BE016F5C7F4F8F
:100E9000CE018F960E942F06CE018F960E9451069A
:100EA00085E00E94F90483E492E00E94C1059FEF6F
:100EB0002FEF8EE0915020408040E1F700C000000D
:100EC0000E942C05E2CFCF93DF93CDB7DEB72A97F0
:100ED0000FB6F894DEBF0FBECDBF0F2EF0ECEF2E95
:100EE000F2E0FF2EF02D8E01095F1F4F60E080E0E1
:100EF0000E940A05CE0101960E945504DD80CE8035
:100F00008AEB92E00E94C10560E081E00E940A0540
:100F1000CF92DF92FF92EF921F930F930E948B0A62
:100F2000C8010E94C1052FEF8FE791E0215080405A
:100F30009040E1F700C000C00F900F900F900F900D
:100F40000F900F90D3CF80E787BB81E58DB90895CF
:100F50008FB9779BFECF0895779BFECF8FB1089511
:100F6000CF93C82F83E00E94A8078C2F0E94A80768
:100F70000E94AC07CF910895CF93DF93D82FC62F4F
:100F800082E00E94A8078D2F0E94A8078C2F0E9444
:100F9000A807DF91CF91089580680E94A80708955F
:100FA00080EA0E94A8070E94AC07089580EC0E9486
:100FB000A807089597FB072E16F4009407D077FD35
:100FC00009D00E94EE0707FC05D03EF4909581956C
:100FD0009F4F0895709561957F4F0895AA1BBB1B85
:100FE00051E107C0AA1FBB1FA617B70710F0A61B29
:100FF000B70B881F991F5A95A9F780959095BC014A
:10100000CD0108950E9416080C94F7080E94F0087C
:1010100058F00E94E90840F029F45F3F29F00C9451
:10102000E00851110C942B090C94E6080E94080961
:1010300068F39923B1F3552391F3951B550BBB2707
:10104000AA2762177307840738F09F5F5F4F220F4C
:10105000331F441FAA1FA9F335D00E2E3AF0E0E843
:1010600032D091505040E695001CCAF72BD0FE2F8D
:1010700029D0660F771F881FBB1F26173707480721
:10108000AB07B0E809F0BB0B802DBF01FF279358D9
:101090005F4F3AF09E3F510578F00C94E0080C94B5
:1010A0002B095F3FE4F3983ED4F3869577956795D7
:1010B000B795F7959F5FC9F7880F911D969587950E
:1010C00097F90895E1E0660F771F881FBB1F62172D
:1010D00073078407BA0720F0621B730B840BBA0BEB
:1010E000EE1F88F7E09508950E94100988F09F5739
:1010F00098F0B92F9927B751B0F0E1F0660F771F3C
:10110000881F991F1AF0BA95C9F714C0B13091F031
:101110000E942A09B1E008950C942A09672F782FBC
:101120008827B85F39F0B93FCCF3869577956795F6
:10113000B395D9F73EF490958095709561957F4F62
:101140008F4F9F4F0895E89409C097FB3EF4909508
:101150008095709561957F4F8F4F9F4F9923A9F090
:10116000F92F96E9BB279395F6958795779567951F
:10117000B795F111F8CFFAF4BB0F11F460FF1BC063
:101180006F5F7F4F8F4F9F4F16C0882311F096E9F6
:1011900011C0772321F09EE8872F762F05C06623A4
:1011A00071F096E8862F70E060E02AF09A95660F5D
:1011B000771F881FDAF7880F9695879597F9089516
:1011C00097F99F6780E870E060E008959FEF80ECFA
:1011D000089500240A94161617061806090608959D
:1011E00000240A9412161306140605060895092E03
:1011F0000394000C11F4882352F0BB0F40F4BF2B72
:1012000011F460FF04C06F5F7F4F8F4F9F4F0895B1
:1012100057FD9058440F551F59F05F3F71F04795A7
:10122000880F97FB991F61F09F3F79F0879508958C
:10123000121613061406551FF2CF4695F1DF08C0AB
:10124000161617061806991FF1CF869571056105C8
:1012500008940895E894BB2766277727CB0197F970
:1012600008950E9444090C94F7080E94E90838F098
:101270000E94F00820F0952311F00C94E0080C94E3
:10128000E60811240C942B090E94080970F3959F1D
:10129000C1F3950F50E0551F629FF001729FBB276D
:1012A000F00DB11D639FAA27F00DB11DAA1F649F09
:1012B0006627B00DA11D661F829F2227B00DA11DBC
:1012C000621F739FB00DA11D621F839FA00D611D42
:1012D000221F749F3327A00D611D231F849F600D63
:1012E000211D822F762F6A2F11249F5750409AF08C
:1012F000F1F088234AF0EE0FFF1FBB1F661F771F18
:10130000881F91505040A9F79E3F510580F00C94E2
:10131000E0080C942B095F3FE4F3983ED4F38695E4
:1013200077956795B795F795E7959F5FC1F7FE2B82
:10133000880F911D9695879597F908958F929F92A2
:10134000AF92BF92CF92DF92EF92FF92CF93DF9353
:10135000EC01688179818A819B8161157105810524
:10136000910521F464E279ED8BE597E02DE133EF0F
:1013700041E050E00E947C0E49015A019B01AC0102
:10138000A7EAB1E40E949B0E6B017C01ACEEB4EFC6
:10139000A50194010E94A90EDC01CB018C0D9D1DBD
:1013A000AE1DBF1DB7FF03C00197A109B0488883D8
:1013B0009983AA83BB839F77DF91CF91FF90EF90B2
:1013C000DF90CF90BF90AF909F908F9008950E9434
:1013D0009E09089580E091E00E949E090895A0E092
:1013E000B0E08093000190930101A0930201B093BB
:1013F000030108950F931F93CF93DF93009731F468
:101400006115710519F480E090E03AC08B01EC01A0
:101410006EE070E081E090E00E94800CFC01892B7E
:1014200091F380E883830115110571F0138702871A
:1014300081E883838091C4029091C502892B21F4B5
:10144000F093C502E093C4022097C9F0D187C0870A
:101450008381826083838091C6029091C702892B29
:1014600071F4F093C702E093C6028091C802909194
:10147000C902892B21F4F093C902E093C802CF017D
:10148000DF91CF911F910F910895A0E0B0E0EBE4C0
:10149000FAE00C94BE0EAE014B5F5F4FFA01619112
:1014A0007191AF018091C6029091C7020E94AE0A6D
:1014B000E2E00C94DA0E0F931F93CF93DF93E09149
:1014C000C602F091C702238121FF1BC08C01D0E02E
:1014D000C0E0F80181918F016091C6027091C7024E
:1014E000DB011896ED91FC911997882331F009954D
:1014F000892B79F3DFEFCFEFECCF8AE00995892BC9
:1015000019F08FEF9FEF02C08D2F9C2FDF91CF91AD
:101510001F910F910895AEE0B0E0E1E9FAE00C947C
:10152000BC0E0D891E8986E08C831A8309838FEF98
:101530009FE79E838D83AE01475E5F4F6F89788DF5
:10154000CE0101960E94AE0A2F813885F801E20F84
:10155000F31F10822E96E4E00C94D80EACE0B0E0BD
:10156000E4EBFAE00C94AE0E7C016B018A01FC0105
:1015700017821682838181FFBDC1CE0101964C0185
:10158000F7019381F60193FD859193FF81916F019E
:10159000882309F4ABC1853239F493FD859193FF1B
:1015A00081916F01853229F4B70190E00E94E60D28
:1015B000E7CF512C312C20E02032A0F48B3269F09F
:1015C00030F4803259F0833269F420612CC08D32BE
:1015D00039F0803339F4216026C02260246023C0B2
:1015E000286021C027FD27C030ED380F3A3078F44D
:1015F00026FF06C0FAE05F9E300D1124532E13C063
:101600008AE0389E300D1124332E20620CC08E32B9
:1016100021F426FD6BC1206406C08C3611F42068CD
:1016200002C0883641F4F60193FD859193FF8191C4
:101630006F018111C1CF982F9F7D9554933028F46D
:101640000C5F1F4FFFE3F9830DC0833631F0833702
:1016500071F0833509F05BC022C0F8018081898375
:101660000E5F1F4F44244394512C540115C0380180
:10167000F2E06F0E711CF801A080B18026FF03C05C
:10168000652D70E002C06FEF7FEFC5012C870E94CF
:10169000DB0D2C0183012C852F77222E17C03801FA
:1016A000F2E06F0E711CF801A080B18026FF03C02C
:1016B000652D70E002C06FEF7FEFC5012C870E949F
:1016C000C90D2C012C852068222E830123FC1BC010
:1016D000832D90E048165906B0F4B70180E290E0FF
:1016E0000E94E60D3A94F4CFF50127FC859127FE80
:1016F00081915F01B70190E00E94E60D31103A94AC
:10170000F1E04F1A51084114510471F7E5C08436D5
:1017100011F0893639F5F80127FF07C06081718122
:10172000828193810C5F1F4F08C060817181072EF9
:10173000000C880B990B0E5F1F4F2F76722E97FFB0
:1017400009C090958095709561957F4F8F4F9F4F01
:101750002068722E2AE030E0A4010E941E0EA82EFE
:10176000A81844C0853729F42F7EB22E2AE030E035
:1017700025C0F22FF97FBF2E8F36C1F018F48835BF
:1017800079F0B4C0803719F0883721F0AFC02F2F1F
:101790002061B22EB4FE0DC08B2D8460B82E09C01E
:1017A00024FF0AC09F2F9660B92E06C028E030E0C3
:1017B00005C020E130E002C020E132E0F801B7FED0
:1017C00007C060817181828193810C5F1F4F06C0C9
:1017D0006081718180E090E00E5F1F4FA4010E9444
:1017E0001E0EA82EA818FB2DFF777F2E76FE0BC0AD
:1017F000372D3E7FA51450F474FE0AC072FC08C059
:10180000372D3E7E05C0BA2C372D03C0BA2C01C03F
:10181000B52C34FF0DC0FE01EA0DF11D808180332F
:1018200011F4397E09C032FF06C0B394B39404C0EA
:10183000832F867809F0B39433FD13C030FF06C0C0
:101840005A2CB31418F4530C5B18B32CB31468F46B
:10185000B70180E290E03C870E94E60DB3943C859E
:10186000F5CFB31410F43B1801C0312C34FF12C073
:10187000B70180E390E03C870E94E60D3C8532FF93
:1018800017C031FD03C088E790E002C088E590E012
:10189000B7010CC0832F867859F031FF02C08BE26C
:1018A00001C080E237FD8DE2B70190E00E94E60DB5
:1018B000A51438F4B70180E390E00E94E60D5A9435
:1018C000F7CFAA94F401EA0DF11D8081B70190E0F1
:1018D0000E94E60DA110F5CF332009F451CEB701D7
:1018E00080E290E00E94E60D3A94F6CFF7018681FF
:1018F000978102C08FEF9FEF2C96E2E10C94CA0E05
:101900000F931F93CF93DF93869F8001879F100DC6
:10191000969F100D1124C8010E949C0CEC010097A9
:1019200029F0A80160E070E00E94D40DCE01DF91A3
:10193000CF911F910F910895CF93DF93823091053E
:1019400010F482E090E0E091CC02F091CD0220E032
:1019500030E0C0E0D0E0309711F14081518148176C
:101960005907C0F04817590761F482819381209785
:1019700019F09B838A832BC09093CD028093CC0275
:1019800026C02115310519F04217530718F49A01A2
:10199000BE01DF01EF010280F381E02DDCCF2115D4
:1019A000310509F1281B390B2430310590F41296CA
:1019B0008D919C9113976115710521F0FB01938323
:1019C000828304C09093CD028093CC02FD013296B5
:1019D00044C0FD01E20FF31F81939193225031091E
:1019E0002D933C933AC02091CA023091CB02232B15
:1019F00041F420910601309107013093CB022093EE
:101A0000CA0220910401309105012115310541F4EC
:101A10002DB73EB74091080150910901241B350BA9
:101A2000E091CA02F091CB02E217F307A0F42E1B5B
:101A30003F0B2817390778F0AC014E5F5F4F241732
:101A4000350748F04E0F5F1F5093CB024093CA02F8
:101A50008193919302C0E0E0F0E0CF01DF91CF915C
:101A600008950F931F93CF93DF93009709F48CC0D1
:101A7000FC013297138212820091CC021091CD02A8
:101A80000115110581F420813181820F931F20916E
:101A9000CA023091CB022817390779F5F093CB02AF
:101AA000E093CA0271C0D80140E050E0AE17BF0712
:101AB00050F412962D913C911397AD0121153105EB
:101AC00009F1D901F3CF9D01DA01338322836081CB
:101AD0007181860F971F8217930769F4EC012881A3
:101AE0003981260F371F2E5F3F4F318320838A8134
:101AF0009B8193838283452B29F4F093CD02E0935D
:101B0000CC0242C01396FC93EE931297ED014991DB
:101B100059919E01240F351FE217F30771F480815C
:101B20009181840F951F029611969C938E938281CA
:101B3000938113969C938E931297E0E0F0E0D80186
:101B400012968D919C911397009719F0F8018C01D2
:101B5000F6CF8D919C9198012E5F3F4F820F931F7E
:101B60002091CA023091CB022817390769F43097C7
:101B700029F41092CD021092CC0202C0138212827C
:101B80001093CB020093CA02DF91CF911F910F9166
:101B90000895FC010590615070400110D8F78095C0
:101BA00090958E0F9F1F0895DC0101C06D934150E9
:101BB0005040E0F70895FC01615070400190011021
:101BC000D8F7809590958E0F9F1F08950F931F93C0
:101BD000CF93DF93FB01238121FD03C08FEF9FEFA4
:101BE00028C022FF16C046815781248135814217C3
:101BF000530744F4A081B1819D012F5F3F4F318392
:101C000020838C93268137812F5F3F4F3783268334
:101C100010C0EB01092F182F0084F185E02D0995E4
:101C2000892BE1F68E819F8101969F838E83812F80
:101C3000902FDF91CF911F910F910895FA01AA275C
:101C4000283051F1203181F1E8946F936E7F6E5FFF
:101C50007F4F8F4F9F4FAF4FB1E03ED0B4E03CD0AD
:101C6000670F781F891F9A1FA11D680F791F8A1F90
:101C7000911DA11D6A0F711D811D911DA11D20D0F7
:101C800009F468943F912AE0269F11243019305DB1
:101C90003193DEF6CF010895462F4770405D4193A2
:101CA000B3E00FD0C9F7F6CF462F4F70405D4A33EF
:101CB00018F0495D31FD4052419302D0A9F7EACFB7
:101CC000B4E0A6959795879577956795BA95C9F7E6
:101CD00000976105710508959B01AC010A2E0694D9
:101CE0005795479537952795BA95C9F7620F731F92
:101CF000841F951FA01D0895052E97FB1EF40094C8
:101D00000E94930E57FD07D00E94E50E07FC03D0FA
:101D10004EF40C94930E50954095309521953F4F7D
:101D20004F4F5F4F089590958095709561957F4FC7
:101D30008F4F9F4F08950E94070FA59F900DB49F4E
:101D4000900DA49F800D911D11240895B7FF0C9450
:101D50009B0E0E949B0E821B930B08952F923F9225
:101D60004F925F926F927F928F929F92AF92BF92AB
:101D7000CF92DF92EF92FF920F931F93CF93DF9357
:101D8000CDB7DEB7CA1BDB0B0FB6F894DEBF0FBEB4
:101D9000CDBF09942A88398848885F846E847D8401
:101DA0008C849B84AA84B984C884DF80EE80FD8003
:101DB0000C811B81AA81B981CE0FD11D0FB6F89479
:101DC000DEBF0FBECDBFED010895A1E21A2EAA1B02
:101DD000BB1BFD010DC0AA1FBB1FEE1FFF1FA217DB
:101DE000B307E407F50720F0A21BB30BE40BF50BD8
:101DF000661F771F881F991F1A9469F76095709561
:101E0000809590959B01AC01BD01CF010895A29FE3
:101E1000B001B39FC001A39F700D811D1124911DBE
:101E2000B29F700D811D1124911D0895F894FFCF6C
:101E3000010000000000CE0220005374617274693A
:101E40006E67205352414D20746573742E2E2E0000
:101E50005772697465207068617365206572726F6E
:101E6000723A206578745F72616D5B2534645D2021
:101E70003D2025303258202873686F756C642062CD
:101E8000652025303258290A0052657472696576DA
:101E9000616C207068617365206572726F723A20A0
:101EA0006578745F72616D5B2534645D203D20252B
:101EB000303258202873686F756C64206265202565
:101EC000303258290A005352414D207465737420F2
:101ED000636F6D706C657465642077697468200A3F
:101EE000253464206572726F727320696E20777278
:101EF00069746520706861736520616E64200A25CD
:101F00003464206572726F727320696E207265741A
:101F100072696576616C2070686173650A0A0043B6
:101F2000686F6F7365206F6E65206F6620746865DB
:101F300020666F6C6C6F77696E673A0020202031E5
:101F40002E205375636B2061206469636B00202031
:101F500020322E20506C61792070696E6720706F7E
:101F60006E6700202020332E204578697420676139
:101F70006D650031002057656C636F6D6520746F6F
:101F800020746869732073657373696F6E20002015
:101F9000506C6561736520776169742E0020506C08
:101FA0006561736520776169742E2E0020506C6521
:101FB00061736520776169742E2E2E00557365203C
:101FC000746865204A6F79737469636B00746F205D
:101FD0006E61766967617465207468726F75676891
:101FE00020746865206D656E750068656C6C6F00A7
:041FF0002564000064
:00000001FF
