:100000000C9438000C9455000C9455000C94550039
:100010000C9455000C9455000C9455000C9455000C
:100020000C9455000C9455000C9455000C945500FC
:100030000C9455000C9455000C9455000C945500EC
:100040000C9455000C9455000C9455000C945500DC
:100050000C9455000C9455000C9455000C945500CC
:100060000C9455000C9455000C9455000C945500BC
:1000700011241FBECFEFD4E0DEBFCDBF11E0A0E062
:10008000B1E0ECE6F4E002C005900D92A630B107B5
:10009000D9F721E0A6E0B1E001C01D92A031B2077E
:1000A000E1F70E9457000C9434020C9400008FEF8B
:1000B00090E00E946F0081E60E947D00FCCF90BD21
:1000C00089B9599A8EE880BD88E18AB908955D9B07
:1000D000FECF8CB908955F9BFECF8CB1089590BD83
:1000E00089B98EE880BD1BB888E18AB963E970E000
:1000F00081E890E00E94990008955D9BFECF8CB945
:100100000895CF93C82F8A3019F48DE00E947D00A6
:100110008C2F0E947D0080E090E0CF9108955F9B3E
:10012000FECF8CB108950E948F00082E000C990B11
:1001300008950F931F93CF93DF93009731F46115C8
:10014000710519F480E090E03AC08B01EC016EE09B
:1001500070E081E090E00E94E400FC01892B91F3C3
:1001600080E883830115110571F01387028781E808
:1001700083838091060190910701892B21F4F093EC
:100180000701E09306012097C9F0D187C0878381DA
:10019000826083838091080190910901892B71F419
:1001A000F0930901E093080180910A0190910B01FD
:1001B000892B21F4F0930B01E0930A01CF01DF9129
:1001C000CF911F910F9108950F931F93CF93DF93BA
:1001D000869F8001879F100D969F100D1124C801E6
:1001E0000E940001EC01009729F0A80160E070E096
:1001F0000E942D02CE01DF91CF911F910F910895A2
:10020000CF93DF938230910510F482E090E0E0918B
:100210000E01F0910F0120E030E0C0E0D0E0309717
:1002200011F14081518148175907C0F0481759070B
:1002300061F482819381209719F09B838A832BC07C
:1002400090930F0180930E0126C02115310519F0FE
:100250004217530718F49A01BE01DF01EF01028033
:10026000F381E02DDCCF2115310509F1281B390B75
:100270002430310590F412968D919C91139761155D
:10028000710521F0FB019383828304C090930F01D9
:1002900080930E01FD01329644C0FD01E20FF31F71
:1002A00081939193225031092D933C933AC0209130
:1002B0000C0130910D01232B41F42091020130916A
:1002C000030130930D0120930C0120910001309126
:1002D00001012115310541F42DB73EB740910401CC
:1002E00050910501241B350BE0910C01F0910D019B
:1002F000E217F307A0F42E1B3F0B2817390778F0FD
:10030000AC014E5F5F4F2417350748F04E0F5F1F5B
:1003100050930D0140930C018193919302C0E0E052
:10032000F0E0CF01DF91CF9108950F931F93CF930A
:10033000DF93009709F48CC0FC013297138212827C
:1003400000910E0110910F010115110581F420811A
:100350003181820F931F20910C0130910D012817DC
:10036000390779F5F0930D01E0930C0171C0D801C4
:1003700040E050E0AE17BF0750F412962D913C912B
:100380001397AD012115310509F1D901F3CF9D0175
:10039000DA013383228360817181860F971F821770
:1003A000930769F4EC0128813981260F371F2E5FEE
:1003B0003F4F318320838A819B8193838283452BA6
:1003C00029F4F0930F01E0930E0142C01396FC93C1
:1003D000EE931297ED01499159919E01240F351F1B
:1003E000E217F30771F480819181840F951F0296C3
:1003F00011969C938E938281938113969C938E93F6
:100400001297E0E0F0E0D80112968D919C9113973D
:10041000009719F0F8018C01F6CF8D919C9198010D
:100420002E5F3F4F820F931F20910C0130910D01E1
:100430002817390769F4309729F410920F011092A8
:100440000E0102C01382128210930D0100930C0161
:10045000DF91CF911F910F910895DC0101C06D9341
:0C04600041505040E0F70895F894FFCFA1
:06046C0000001001200059
:00000001FF
