:100000000C9438000C9455000C9455000C94550039
:100010000C9455000C9455000C9455000C9455000C
:100020000C9455000C9455000C9455000C945500FC
:100030000C9455000C9455000C9455000C945500EC
:100040000C9455000C9455000C9455000C945500DC
:100050000C9455000C9455000C9455000C945500CC
:100060000C9455000C9455000C9455000C945500BC
:1000700011241FBECFEFD4E0DEBFCDBF11E0A0E062
:10008000B1E0E6E3FDE002C005900D92AE3FB1079E
:10009000D9F722E0AEEFB1E001C01D92A830B2075F
:1000A000E1F70E94DA000C9499060C940000CF92BC
:1000B000DF92EF92FF920F931F93CF93DF938AE02B
:1000C00091E00E9401020E9490017C010E94950132
:1000D000C12CD12CC0E0D0E000E211E00E949001E0
:1000E000F601F85E808320812817A1F099279F935D
:1000F0008F931F922F93DF92CF921F930F930E94A3
:10010000EB0121968DB79EB708960FB6F8949EBF67
:100110000FBE8DBF9FEFC91AD90AC11488E0D80657
:10012000E9F6C7010E94950100E010E0E12CF12CF6
:100130000F2EF9E5CF2EF1E0DF2EF02D0E94900179
:10014000F801F85E20812817B1F099279F938F93CB
:100150001F922F931F930F93DF92CF920E94EB0178
:100160009FEFE91AF90A8DB79EB708960FB6F89473
:100170009EBF0FBE8DBF0F5F1F4F011598E019077F
:10018000E9F6FF92EF92DF93CF9386E991E09F9398
:100190008F930E94EB010F900F900F900F900F9094
:1001A0000F90DF91CF911F910F91FF90EF90DF9013
:1001B000CF9008958FE190E00E94FA000E94240100
:1001C000CFEED1E085E090E00E943901182F84E065
:1001D00090E00E9439011F921F931F928F93DF932B
:1001E000CF930E94EB010F900F900F900F900F9004
:1001F0000F90E8CF90BD89B98EE880BD1BB888E12B
:100200008AB96EE171E08CE091E00E94A00108954E
:100210005D9BFECF8CB90895CF93C82F8A3019F417
:100220008DE00E9408018C2F0E94080180E090E080
:10023000CF9108955F9BFECF8CB108950E941A0163
:10024000082E000C990B089585B7806885BF80B78C
:10025000806280BF089580930010089580930012FB
:100260000895FC01F85E60830895FC01F85E8081CA
:100270000895E0E0F4E180838CEC94E00197F1F7DD
:1002800000C00000808108958F929F92AF92BF922C
:10029000CF92DF92EF92FF92CF93DF93EC016881D0
:1002A00079818A819B81611571058105910521F410
:1002B00064E279ED8BE597E02DE133EF41E050E02A
:1002C0000E94FF0549015A019B01AC01A7EAB1E474
:1002D0000E941E066B017C01ACEEB4EFA5019401F7
:1002E0000E942C06DC01CB018C0D9D1DAE1DBF1D97
:1002F000B7FF03C00197A109B04888839983AA83F7
:10030000BB839F77DF91CF91FF90EF90DF90CF90ED
:10031000BF90AF909F908F9008950E9444010895E0
:1003200080E091E00E9444010895A0E0B0E0809355
:10033000000190930101A0930201B093030108957D
:100340000F931F93CF93DF93009731F461157105DD
:1003500019F480E090E03AC08B01EC016EE070E0AF
:1003600081E090E00E940304FC01892B91F380E876
:1003700083830115110571F01387028781E8838358
:100380008091FE019091FF01892B21F4F093FF01F0
:10039000E093FE012097C9F0D187C08783818260F6
:1003A00083838091000290910102892B71F4F09374
:1003B0000102E09300028091020290910302892BD6
:1003C00021F4F0930302E0930202CF01DF91CF9179
:1003D0001F910F910895A0E0B0E0E1EFF1E00C94DF
:1003E0004106AE014B5F5F4FFA0161917191AF0120
:1003F00080910002909101020E943102E2E00C948F
:100400005D060F931F93CF93DF93E0910002F0916D
:100410000102238121FF1BC08C01D0E0C0E0F80164
:1004200081918F016091000270910102DB011896A9
:10043000ED91FC911997882331F00995892B79F377
:10044000DFEFCFEFECCF8AE00995892B19F08FEF22
:100450009FEF02C08D2F9C2FDF91CF911F910F91A5
:100460000895ACE0B0E0E7E3F2E00C9431067C01E3
:100470006B018A01FC0117821682838181FFBDC155
:10048000CE0101964C01F7019381F60193FD859110
:1004900093FF81916F01882309F4ABC1853239F450
:1004A00093FD859193FF81916F01853229F4B70106
:1004B00090E00E946905E7CF512C312C20E02032DA
:1004C000A0F48B3269F030F4803259F0833269F451
:1004D00020612CC08D3239F0803339F4216026C080
:1004E0002260246023C0286021C027FD27C030ED92
:1004F000380F3A3078F426FF06C0FAE05F9E300DE0
:100500001124532E13C08AE0389E300D1124332E4F
:1005100020620CC08E3221F426FD6BC1206406C01F
:100520008C3611F4206802C0883641F4F60193FD40
:10053000859193FF81916F018111C1CF982F9F7D8C
:100540009554933028F40C5F1F4FFFE3F9830DC0DF
:10055000833631F0833771F0833509F05BC022C0F8
:10056000F801808189830E5F1F4F44244394512CEE
:10057000540115C03801F2E06F0E711CF801A08023
:10058000B18026FF03C0652D70E002C06FEF7FEFE2
:10059000C5012C870E945E052C0183012C852F77D5
:1005A000222E17C03801F2E06F0E711CF801A080F6
:1005B000B18026FF03C0652D70E002C06FEF7FEFB2
:1005C000C5012C870E944C052C012C852068222E09
:1005D000830123FC1BC0832D90E048165906B0F41C
:1005E000B70180E290E00E9469053A94F4CFF501EA
:1005F00027FC859127FE81915F01B70190E00E9461
:10060000690531103A94F1E04F1A51084114510430
:1006100071F7E5C0843611F0893639F5F80127FF06
:1006200007C060817181828193810C5F1F4F08C078
:1006300060817181072E000C880B990B0E5F1F4F94
:100640002F76722E97FF09C09095809570956195D1
:100650007F4F8F4F9F4F2068722E2AE030E0A40119
:100660000E94A105A82EA81844C0853729F42F7E22
:10067000B22E2AE030E025C0F22FF97FBF2E8F3650
:10068000C1F018F4883579F0B4C0803719F0883794
:1006900021F0AFC02F2F2061B22EB4FE0DC08B2DE4
:1006A0008460B82E09C024FF0AC09F2F9660B92E1F
:1006B00006C028E030E005C020E130E002C020E1C3
:1006C00032E0F801B7FE07C06081718182819381B9
:1006D0000C5F1F4F06C06081718180E090E00E5F6B
:1006E0001F4FA4010E94A105A82EA818FB2DFF777B
:1006F0007F2E76FE0BC0372D3E7FA51450F474FE7E
:100700000AC072FC08C0372D3E7E05C0BA2C372DBA
:1007100003C0BA2C01C0B52C34FF0DC0FE01EA0D98
:10072000F11D8081803311F4397E09C032FF06C08B
:10073000B394B39404C0832F867809F0B39433FD47
:1007400013C030FF06C05A2CB31418F4530C5B18B6
:10075000B32CB31468F4B70180E290E03C870E94A8
:100760006905B3943C85F5CFB31410F43B1801C070
:10077000312C34FF12C0B70180E390E03C870E9427
:1007800069053C8532FF17C031FD03C088E790E062
:1007900002C088E590E0B7010CC0832F867859F03D
:1007A00031FF02C08BE201C080E237FD8DE2B7016C
:1007B00090E00E946905A51438F4B70180E390E049
:1007C0000E9469055A94F7CFAA94F401EA0DF11D2D
:1007D0008081B70190E00E946905A110F5CF332018
:1007E00009F451CEB70180E290E00E9469053A9485
:1007F000F6CFF7018681978102C08FEF9FEF2C968D
:10080000E2E10C944D060F931F93CF93DF93869FE5
:100810008001879F100D969F100D1124C8010E9422
:100820001F04EC01009729F0A80160E070E00E942D
:100830005705CE01DF91CF911F910F910895CF936E
:10084000DF938230910510F482E090E0E09106029F
:10085000F091070220E030E0C0E0D0E0309711F1E5
:100860004081518148175907C0F04817590761F472
:1008700082819381209719F09B838A832BC0909368
:1008800007028093060226C02115310519F0421790
:10089000530718F49A01BE01DF01EF010280F381D2
:1008A000E02DDCCF2115310509F1281B390B24304F
:1008B000310590F412968D919C91139761157105F5
:1008C00021F0FB019383828304C0909307028093FD
:1008D0000602FD01329644C0FD01E20FF31F819331
:1008E0009193225031092D933C933AC020910402F8
:1008F00030910502232B41F420910601309107012C
:1009000030930502209304022091040130910501E7
:100910002115310541F42DB73EB7409108015091A2
:100920000901241B350BE0910402F0910502E21746
:10093000F307A0F42E1B3F0B2817390778F0AC0102
:100940004E5F5F4F2417350748F04E0F5F1F5093DF
:100950000502409304028193919302C0E0E0F0E02D
:10096000CF01DF91CF9108950F931F93CF93DF9322
:10097000009709F48CC0FC01329713821282009117
:100980000602109107020115110581F420813181C1
:10099000820F931F20910402309105022817390716
:1009A00079F5F0930502E093040271C0D80140E0AC
:1009B00050E0AE17BF0750F412962D913C9113975B
:1009C000AD012115310509F1D901F3CF9D01DA01FE
:1009D0003383228360817181860F971F821793076B
:1009E00069F4EC0128813981260F371F2E5F3F4FB4
:1009F000318320838A819B8193838283452B29F4D1
:100A0000F0930702E093060242C01396FC93EE9324
:100A10001297ED01499159919E01240F351FE2175C
:100A2000F30771F480819181840F951F02961196CE
:100A30009C938E938281938113969C938E931297AD
:100A4000E0E0F0E0D80112968D919C911397009709
:100A500019F0F8018C01F6CF8D919C9198012E5FD1
:100A60003F4F820F931F20910402309105022817F7
:100A7000390769F4309729F41092070210920602A0
:100A800002C0138212821093050200930402DF91C8
:100A9000CF911F910F910895FC0105906150704016
:100AA0000110D8F7809590958E0F9F1F0895DC0157
:100AB00001C06D9341505040E0F70895FC01615032
:100AC000704001900110D8F7809590958E0F9F1F70
:100AD00008950F931F93CF93DF93FB01238121FD93
:100AE00003C08FEF9FEF28C022FF16C046815781B9
:100AF000248135814217530744F4A081B1819D01BF
:100B00002F5F3F4F318320838C93268137812F5F66
:100B10003F4F3783268310C0EB01092F182F008425
:100B2000F185E02D0995892BE1F68E819F81019653
:100B30009F838E83812F902FDF91CF911F910F91F3
:100B40000895FA01AA27283051F1203181F1E89463
:100B50006F936E7F6E5F7F4F8F4F9F4FAF4FB1E0B0
:100B60003ED0B4E03CD0670F781F891F9A1FA11DAB
:100B7000680F791F8A1F911DA11D6A0F711D811DAC
:100B8000911DA11D20D009F468943F912AE0269F71
:100B900011243019305D3193DEF6CF010895462FD0
:100BA0004770405D4193B3E00FD0C9F7F6CF462FB1
:100BB0004F70405D4A3318F0495D31FD405241931A
:100BC00002D0A9F7EACFB4E0A695979587957795D7
:100BD0006795BA95C9F700976105710508959B015E
:100BE000AC010A2E06945795479537952795BA95E7
:100BF000C9F7620F731F841F951FA01D0895052E4E
:100C000097FB1EF400940E94160657FD07D00E9421
:100C1000680607FC03D04EF40C94160650954095D8
:100C2000309521953F4F4F4F5F4F08959095809598
:100C3000709561957F4F8F4F9F4F08950E948A0650
:100C4000A59F900DB49F900DA49F800D911D112420
:100C50000895B7FF0C941E060E941E06821B930B7C
:100C600008952F923F924F925F926F927F928F9250
:100C70009F92AF92BF92CF92DF92EF92FF920F932B
:100C80001F93CF93DF93CDB7DEB7CA1BDB0B0FB635
:100C9000F894DEBF0FBECDBF09942A8839884888F2
:100CA0005F846E847D848C849B84AA84B984C88488
:100CB000DF80EE80FD800C811B81AA81B981CE0F7F
:100CC000D11D0FB6F894DEBF0FBECDBFED01089564
:100CD000A1E21A2EAA1BBB1BFD010DC0AA1FBB1F40
:100CE000EE1FFF1FA217B307E407F50720F0A21BB2
:100CF000B30BE40BF50B661F771F881F991F1A941F
:100D000069F760957095809590959B01AC01BD0148
:100D1000CF010895A29FB001B39FC001A39F700DA2
:100D2000811D1124911DB29F700D811D1124911DF3
:060D30000895F894FFCFC6
:100D3600010000000000080220005374617274690B
:100D46006E67205352414D20746573742E2E2E000B
:100D56005772697465207068617365206572726F79
:100D6600723A206578745F72616D5B2534645D202C
:100D76003D2025303258202873686F756C642062D8
:100D8600652025303258290A0052657472696576E5
:100D9600616C207068617365206572726F723A20AB
:100DA6006578745F72616D5B2534645D203D202536
:100DB600303258202873686F756C64206265202570
:100DC600303258290A005352414D207465737420FD
:100DD600636F6D706C657465642077697468200A4A
:100DE600253464206572726F727320696E20777283
:100DF60069746520706861736520616E64200A25D8
:100E06003464206572726F727320696E2072657425
:100E160072696576616C2070686173650A0A0025DF
:0E0E26003032582020202020253032580A007B
:00000001FF
