:100000000C9438000C9455000C9455000C94550039
:100010000C9455000C9455000C9455000C9455000C
:100020000C9455000C9455000C9455000C945500FC
:100030000C9455000C9455000C9455000C945500EC
:100040000C9455000C9455000C9455000C945500DC
:100050000C9455000C9455000C9455000C945500CC
:100060000C9455000C9455000C9455000C945500BC
:1000700011241FBECFEFD4E0DEBFCDBF11E0A0E062
:10008000B1E0E4E8F1E102C005900D92A03FB107B4
:10009000D9F721E0A0EFB1E001C01D92AA3FB2075D
:1000A000E1F70E94DA000C94C0080C940000CF9293
:1000B000DF92EF92FF920F931F93CF93DF938AE02B
:1000C00091E00E9428040E94B7037C010E94BC03B7
:1000D000C12CD12CC0E0D0E000E211E00E94B703B7
:1000E000F601F85E808320812817A1F099279F935D
:1000F0008F931F922F93DF92CF921F930F930E94A3
:10010000120421968DB79EB708960FB6F8949EBF3D
:100110000FBE8DBF9FEFC91AD90AC11488E0D80657
:10012000E9F6C7010E94BC0300E010E0E12CF12CCD
:100130000F2EF9E5CF2EF1E0DF2EF02D0E94B70350
:10014000F801F85E20812817B1F099279F938F93CB
:100150001F922F931F930F93DF92CF920E9412044E
:100160009FEFE91AF90A8DB79EB708960FB6F89473
:100170009EBF0FBE8DBF0F5F1F4F011598E019077F
:10018000E9F6FF92EF92DF93CF9386E991E09F9398
:100190008F930E9412040F900F900F900F900F906A
:1001A0000F90DF91CF911F910F91FF90EF90DF9013
:1001B000CF9008958FE190E00E94E4000E940E012C
:1001C00085E00E94CC01FCCF90BD89B98EE880BD4E
:1001D0001BB888E18AB968E071E086EF90E00E9480
:1001E000C70308955D9BFECF8CB90895CF93C82FA8
:1001F0008A3019F48DE00E94F2008C2F0E94F200E8
:1002000080E090E0CF9108955F9BFECF8CB1089580
:100210000E940401082E000C990B089585B7806890
:1002200085BF80B7806280BF0895809300100895D5
:10023000809300120895FC01F85E60830895FC012C
:10024000F85E80810895E0E0F4E180838CEC94E036
:100250000197F1F700C00000808108950F931F936C
:10026000CF93DF93EC0184E090E00E942301082FFC
:1002700085E090E00E942301182F602F70E080E05D
:1002800090E00E94700220E030E04FE753E40E94CB
:10029000CF0120E030E048EC52E40E94FE020E94D0
:1002A00041026883612F70E080E090E00E9470025C
:1002B00020E030E04FE753E40E94CF0120E030E03F
:1002C00048EC52E40E94FE020E94410269830F350D
:1002D00028F084E090E09B838A8302C01B821A820C
:1002E000073820F081E090E09B838A831F3528F057
:1002F00084E090E09D838C8304C083E090E09D8344
:100300008C83173820F082E090E09D838C83DF910E
:10031000CF911F910F9108950F931F93CF93DF9368
:100320008C0186E090E00E942301D82F87E090E0C6
:100330000E942301C82F6D2F70E080E090E00E94A2
:10034000700220E030E04FE753E40E94CF0120E04C
:1003500030E048EC52E40E94FE020E944102F801A3
:1003600060836C2F70E080E090E00E94700220E0DB
:1003700030E04FE753E40E94CF0120E030E048EC4A
:1003800052E40E94FE020E944102F8016183DF9163
:10039000CF911F910F9108950E94180108950E9416
:1003A000E3010C94C4020E94BD0258F00E94B60200
:1003B00040F029F45F3F29F00C94AD0251110C94E8
:1003C000F8020C94B3020E94D50268F39923B1F3AA
:1003D000552391F3951B550BBB27AA27621773076B
:1003E000840738F09F5F5F4F220F331F441FAA1FFF
:1003F000A9F335D00E2E3AF0E0E832D091505040BB
:10040000E695001CCAF72BD0FE2F29D0660F771F68
:10041000881FBB1F261737074807AB07B0E809F04E
:10042000BB0B802DBF01FF2793585F4F3AF09E3FD3
:10043000510578F00C94AD020C94F8025F3FE4F3A0
:10044000983ED4F3869577956795B795F7959F5F16
:10045000C9F7880F911D9695879597F90895E1E062
:10046000660F771F881FBB1F621773078407BA07C1
:1004700020F0621B730B840BBA0BEE1F88F7E0951C
:1004800008950E94DD0288F09F5798F0B92F9927B0
:10049000B751B0F0E1F0660F771F881F991F1AF06F
:1004A000BA95C9F714C0B13091F00E94F702B1E0DB
:1004B00008950C94F702672F782F8827B85F39F0DA
:1004C000B93FCCF3869577956795B395D9F73EF408
:1004D00090958095709561957F4F8F4F9F4F0895B0
:1004E000E89409C097FB3EF49095809570956195CE
:1004F0007F4F8F4F9F4F9923A9F0F92F96E9BB2784
:100500009395F695879577956795B795F111F8CFFF
:10051000FAF4BB0F11F460FF1BC06F5F7F4F8F4F6A
:100520009F4F16C0882311F096E911C0772321F060
:100530009EE8872F762F05C0662371F096E8862FF8
:1005400070E060E02AF09A95660F771F881FDAF74F
:10055000880F9695879597F9089597F99F6780E892
:1005600070E060E008959FEF80EC089500240A9405
:100570001616170618060906089500240A9412167E
:100580001306140605060895092E0394000C11F4B1
:10059000882352F0BB0F40F4BF2B11F460FF04C05E
:1005A0006F5F7F4F8F4F9F4F089557FD9058440FB7
:1005B000551F59F05F3F71F04795880F97FB991FC2
:1005C00061F09F3F79F0879508951216130614067F
:1005D000551FF2CF4695F1DF08C01616170618060C
:1005E000991FF1CF86957105610508940895E894E7
:1005F000BB2766277727CB0197F908950E9411033F
:100600000C94C4020E94B60238F00E94BD0220F091
:10061000952311F00C94AD020C94B30211240C94A8
:10062000F8020E94D50270F3959FC1F3950F50E038
:10063000551F629FF001729FBB27F00DB11D639F94
:10064000AA27F00DB11DAA1F649F6627B00DA11D3A
:10065000661F829F2227B00DA11D621F739FB00DE0
:10066000A11D621F839FA00D611D221F749F332750
:10067000A00D611D231F849F600D211D822F762FE9
:100680006A2F11249F5750409AF0F1F088234AF0C6
:10069000EE0FFF1FBB1F661F771F881F9150504032
:1006A000A9F79E3F510580F00C94AD020C94F8021E
:1006B0005F3FE4F3983ED4F3869577956795B795B9
:1006C000F795E7959F5FC1F7FE2B880F911D9695D3
:1006D000879597F908958F929F92AF92BF92CF928C
:1006E000DF92EF92FF92CF93DF93EC0168817981E3
:1006F0008A819B81611571058105910521F464E270
:1007000079ED8BE597E02DE133EF41E050E00E9479
:10071000260849015A019B01AC01A7EAB1E40E94F5
:1007200045086B017C01ACEEB4EFA50194010E9479
:100730005308DC01CB018C0D9D1DAE1DBF1DB7FF05
:1007400003C00197A109B04888839983AA83BB831A
:100750009F77DF91CF91FF90EF90DF90CF90BF9088
:10076000AF909F908F9008950E946B03089580E052
:1007700091E00E946B030895A0E0B0E08093000137
:1007800090930101A0930201B093030108950F9388
:100790001F93CF93DF93009731F46115710519F41E
:1007A00080E090E03AC08B01EC016EE070E081E007
:1007B00090E00E942A06FC01892B91F380E8838354
:1007C0000115110571F01387028781E883838091F9
:1007D000F0019091F101892B21F4F093F101E09364
:1007E000F0012097C9F0D187C0878381826083831D
:1007F0008091F2019091F301892B71F4F093F30150
:10080000E093F2018091F4019091F501892B21F49C
:10081000F093F501E093F401CF01DF91CF911F91A7
:100820000F910895A0E0B0E0E8E1F4E00C946808CE
:10083000AE014B5F5F4FFA0161917191AF01809101
:10084000F2019091F3010E945804E2E00C948408B4
:100850000F931F93CF93DF93E091F201F091F30197
:10086000238121FF1BC08C01D0E0C0E0F801819101
:100870008F016091F2017091F301DB011896ED9107
:10088000FC911997882331F00995892B79F3DFEFD3
:10089000CFEFECCF8AE00995892B19F08FEF9FEF0E
:1008A00002C08D2F9C2FDF91CF911F910F91089542
:1008B000ACE0B0E0EEE5F4E00C9458087C016B018C
:1008C0008A01FC0117821682838181FFBDC1CE019E
:1008D00001964C01F7019381F60193FD859193FFF9
:1008E00081916F01882309F4ABC1853239F493FDFE
:1008F000859193FF81916F01853229F4B70190E0D2
:100900000E949007E7CF512C312C20E02032A0F438
:100910008B3269F030F4803259F0833269F420610F
:100920002CC08D3239F0803339F4216026C022602A
:10093000246023C0286021C027FD27C030ED380F78
:100940003A3078F426FF06C0FAE05F9E300D11249D
:10095000532E13C08AE0389E300D1124332E2062AE
:100960000CC08E3221F426FD6BC1206406C08C368B
:1009700011F4206802C0883641F4F60193FD859198
:1009800093FF81916F018111C1CF982F9F7D955465
:10099000933028F40C5F1F4FFFE3F9830DC08336BB
:1009A00031F0833771F0833509F05BC022C0F80164
:1009B000808189830E5F1F4F44244394512C54013E
:1009C00015C03801F2E06F0E711CF801A080B180F3
:1009D00026FF03C0652D70E002C06FEF7FEFC501F9
:1009E0002C870E9485072C0183012C852F77222ECE
:1009F00017C03801F2E06F0E711CF801A080B180C1
:100A000026FF03C0652D70E002C06FEF7FEFC501C8
:100A10002C870E9473072C012C852068222E8301CD
:100A200023FC1BC0832D90E048165906B0F4B70193
:100A300080E290E00E9490073A94F4CFF50127FC01
:100A4000859127FE81915F01B70190E00E94900798
:100A500031103A94F1E04F1A51084114510471F7E2
:100A6000E5C0843611F0893639F5F80127FF07C053
:100A700060817181828193810C5F1F4F08C060810A
:100A80007181072E000C880B990B0E5F1F4F2F767C
:100A9000722E97FF09C090958095709561957F4F54
:100AA0008F4F9F4F2068722E2AE030E0A4010E94F1
:100AB000C807A82EA81844C0853729F42F7EB22E67
:100AC0002AE030E025C0F22FF97FBF2E8F36C1F02B
:100AD00018F4883579F0B4C0803719F0883721F0E0
:100AE000AFC02F2F2061B22EB4FE0DC08B2D8460BD
:100AF000B82E09C024FF0AC09F2F9660B92E06C0E9
:100B000028E030E005C020E130E002C020E132E022
:100B1000F801B7FE07C060817181828193810C5F0B
:100B20001F4F06C06081718180E090E00E5F1F4F13
:100B3000A4010E94C807A82EA818FB2DFF777F2EBE
:100B400076FE0BC0372D3E7FA51450F474FE0AC00C
:100B500072FC08C0372D3E7E05C0BA2C372D03C06D
:100B6000BA2C01C0B52C34FF0DC0FE01EA0DF11DF9
:100B70008081803311F4397E09C032FF06C0B394FE
:100B8000B39404C0832F867809F0B39433FD13C067
:100B900030FF06C05A2CB31418F4530C5B18B32C56
:100BA000B31468F4B70180E290E03C870E9490079C
:100BB000B3943C85F5CFB31410F43B1801C0312C2D
:100BC00034FF12C0B70180E390E03C870E94900799
:100BD0003C8532FF17C031FD03C088E790E002C0BA
:100BE00088E590E0B7010CC0832F867859F031FF7B
:100BF00002C08BE201C080E237FD8DE2B70190E0D8
:100C00000E949007A51438F4B70180E390E00E9499
:100C100090075A94F7CFAA94F401EA0DF11D808150
:100C2000B70190E00E949007A110F5CF332009F49E
:100C300051CEB70180E290E00E9490073A94F6CF3F
:100C4000F7018681978102C08FEF9FEF2C96E2E13A
:100C50000C9474080F931F93CF93DF93869F8001AA
:100C6000879F100D969F100D1124C8010E94460603
:100C7000EC01009729F0A80160E070E00E947E0777
:100C8000CE01DF91CF911F910F910895CF93DF9304
:100C90008230910510F482E090E0E091F801F0914B
:100CA000F90120E030E0C0E0D0E0309711F1408160
:100CB000518148175907C0F04817590761F48281DC
:100CC0009381209719F09B838A832BC09093F9011D
:100CD0008093F80126C02115310519F042175307FA
:100CE00018F49A01BE01DF01EF010280F381E02DCB
:100CF000DCCF2115310509F1281B390B24303105D2
:100D000090F412968D919C9113976115710521F0C5
:100D1000FB019383828304C09093F9018093F801CF
:100D2000FD01329644C0FD01E20FF31F81939193C0
:100D3000225031092D933C933AC02091F601309115
:100D4000F701232B41F420910601309107013093E4
:100D5000F7012093F601209104013091050121153E
:100D6000310541F42DB73EB740910801509109017A
:100D7000241B350BE091F601F091F701E217F30720
:100D8000A0F42E1B3F0B2817390778F0AC014E5FFB
:100D90005F4F2417350748F04E0F5F1F5093F70140
:100DA0004093F6018193919302C0E0E0F0E0CF011F
:100DB000DF91CF9108950F931F93CF93DF93009707
:100DC00009F48CC0FC013297138212820091F80161
:100DD0001091F9010115110581F420813181820FF3
:100DE000931F2091F6013091F7012817390779F503
:100DF000F093F701E093F60171C0D80140E050E0B4
:100E0000AE17BF0750F412962D913C911397AD0188
:100E10002115310509F1D901F3CF9D01DA013383A1
:100E2000228360817181860F971F8217930769F46F
:100E3000EC0128813981260F371F2E5F3F4F318308
:100E400020838A819B8193838283452B29F4F093AD
:100E5000F901E093F80142C01396FC93EE931297C8
:100E6000ED01499159919E01240F351FE217F307B7
:100E700071F480819181840F951F029611969C9345
:100E80008E938281938113969C938E931297E0E0C8
:100E9000F0E0D80112968D919C911397009719F06C
:100EA000F8018C01F6CF8D919C9198012E5F3F4FF8
:100EB000820F931F2091F6013091F701281739070F
:100EC00069F4309729F41092F9011092F80102C0E8
:100ED000138212821093F7010093F601DF91CF91F4
:100EE0001F910F910895FC01059061507040011011
:100EF000D8F7809590958E0F9F1F0895DC0101C053
:100F00006D9341505040E0F70895FC0161507040EE
:100F100001900110D8F7809590958E0F9F1F08952E
:100F20000F931F93CF93DF93FB01238121FD03C018
:100F30008FEF9FEF28C022FF16C046815781248182
:100F400035814217530744F4A081B1819D012F5F81
:100F50003F4F318320838C93268137812F5F3F4F12
:100F60003783268310C0EB01092F182F0084F185E9
:100F7000E02D0995892BE1F68E819F8101969F8353
:100F80008E83812F902FDF91CF911F910F91089524
:100F9000FA01AA27283051F1203181F1E8946F93AA
:100FA0006E7F6E5F7F4F8F4F9F4FAF4FB1E03ED050
:100FB000B4E03CD0670F781F891F9A1FA11D680FEE
:100FC000791F8A1F911DA11D6A0F711D811D911D21
:100FD000A11D20D009F468943F912AE0269F112496
:100FE0003019305D3193DEF6CF010895462F4770FA
:100FF000405D4193B3E00FD0C9F7F6CF462F4F7055
:10100000405D4A3318F0495D31FD4052419302D0B2
:10101000A9F7EACFB4E0A695979587957795679558
:10102000BA95C9F700976105710508959B01AC0158
:101030000A2E06945795479537952795BA95C9F77F
:10104000620F731F841F951FA01D0895052E97FB27
:101050001EF400940E943D0857FD07D00E948F089F
:1010600007FC03D04EF40C943D0850954095309504
:1010700021953F4F4F4F5F4F089590958095709504
:1010800061957F4F8F4F9F4F08950E94B108A59F94
:10109000900DB49F900DA49F800D911D1124089573
:1010A000B7FF0C9445080E944508821B930B0895D6
:1010B0002F923F924F925F926F927F928F929F9268
:1010C000AF92BF92CF92DF92EF92FF920F931F9356
:1010D000CF93DF93CDB7DEB7CA1BDB0B0FB6F89407
:1010E000DEBF0FBECDBF09942A88398848885F8447
:1010F0006E847D848C849B84AA84B984C884DF80B8
:10110000EE80FD800C811B81AA81B981CE0FD11D9B
:101110000FB6F894DEBF0FBECDBFED010895A1E27A
:101120001A2EAA1BBB1BFD010DC0AA1FBB1FEE1F61
:10113000FF1FA217B307E407F50720F0A21BB30BAC
:10114000E40BF50B661F771F881F991F1A9469F728
:1011500060957095809590959B01AC01BD01CF0184
:101160000895A29FB001B39FC001A39F700D811D80
:101170001124911DB29F700D811D1124911D0895A0
:04118000F894FFCF11
:10118400010000000000FA012000537461727469C8
:101194006E67205352414D20746573742E2E2E00B9
:1011A4005772697465207068617365206572726F27
:1011B400723A206578745F72616D5B2534645D20DA
:1011C4003D2025303258202873686F756C64206286
:1011D400652025303258290A005265747269657693
:1011E400616C207068617365206572726F723A2059
:1011F4006578745F72616D5B2534645D203D2025E4
:10120400303258202873686F756C6420626520251D
:10121400303258290A005352414D207465737420AA
:10122400636F6D706C657465642077697468200AF7
:10123400253464206572726F727320696E20777230
:1012440069746520706861736520616E64200A2585
:101254003464206572726F727320696E20726574D3
:1012640072696576616C2070686173650A0A0000B2
:00000001FF
